{
  "contractName": "Actor",
  "abi": [
    {
      "inputs": [
        {
          "internalType": "string",
          "name": "_id",
          "type": "string"
        },
        {
          "internalType": "string",
          "name": "_name",
          "type": "string"
        },
        {
          "internalType": "string",
          "name": "_actorType",
          "type": "string"
        },
        {
          "internalType": "string",
          "name": "_latitude",
          "type": "string"
        },
        {
          "internalType": "string",
          "name": "_longitude",
          "type": "string"
        }
      ],
      "payable": false,
      "stateMutability": "nonpayable",
      "type": "constructor"
    },
    {
      "anonymous": false,
      "inputs": [
        {
          "indexed": false,
          "internalType": "address",
          "name": "_address",
          "type": "address"
        }
      ],
      "name": "TransactionCreated",
      "type": "event"
    },
    {
      "constant": true,
      "inputs": [],
      "name": "actorType",
      "outputs": [
        {
          "internalType": "string",
          "name": "",
          "type": "string"
        }
      ],
      "payable": false,
      "stateMutability": "view",
      "type": "function"
    },
    {
      "constant": true,
      "inputs": [],
      "name": "id",
      "outputs": [
        {
          "internalType": "string",
          "name": "",
          "type": "string"
        }
      ],
      "payable": false,
      "stateMutability": "view",
      "type": "function"
    },
    {
      "constant": true,
      "inputs": [],
      "name": "latitude",
      "outputs": [
        {
          "internalType": "string",
          "name": "",
          "type": "string"
        }
      ],
      "payable": false,
      "stateMutability": "view",
      "type": "function"
    },
    {
      "constant": true,
      "inputs": [],
      "name": "longitude",
      "outputs": [
        {
          "internalType": "string",
          "name": "",
          "type": "string"
        }
      ],
      "payable": false,
      "stateMutability": "view",
      "type": "function"
    },
    {
      "constant": true,
      "inputs": [],
      "name": "name",
      "outputs": [
        {
          "internalType": "string",
          "name": "",
          "type": "string"
        }
      ],
      "payable": false,
      "stateMutability": "view",
      "type": "function"
    },
    {
      "constant": true,
      "inputs": [],
      "name": "owner",
      "outputs": [
        {
          "internalType": "address",
          "name": "",
          "type": "address"
        }
      ],
      "payable": false,
      "stateMutability": "view",
      "type": "function"
    },
    {
      "constant": false,
      "inputs": [
        {
          "components": [
            {
              "internalType": "string",
              "name": "productId",
              "type": "string"
            },
            {
              "internalType": "address",
              "name": "addressTransaction",
              "type": "address"
            }
          ],
          "internalType": "struct Transaction.Product[]",
          "name": "_productsInput",
          "type": "tuple[]"
        },
        {
          "components": [
            {
              "internalType": "string",
              "name": "productId",
              "type": "string"
            },
            {
              "internalType": "address",
              "name": "addressTransaction",
              "type": "address"
            }
          ],
          "internalType": "struct Transaction.Product[]",
          "name": "_productsOutput",
          "type": "tuple[]"
        },
        {
          "internalType": "contract Actor",
          "name": "_buyer",
          "type": "address"
        },
        {
          "internalType": "string",
          "name": "_idTransaction",
          "type": "string"
        },
        {
          "internalType": "enum Transaction.TransportType",
          "name": "_transport",
          "type": "uint8"
        }
      ],
      "name": "createTransaction",
      "outputs": [],
      "payable": false,
      "stateMutability": "nonpayable",
      "type": "function"
    },
    {
      "constant": true,
      "inputs": [],
      "name": "getActorInformations",
      "outputs": [
        {
          "internalType": "string",
          "name": "_id",
          "type": "string"
        },
        {
          "internalType": "string",
          "name": "_name",
          "type": "string"
        },
        {
          "internalType": "string",
          "name": "_actorType",
          "type": "string"
        },
        {
          "internalType": "string",
          "name": "_latitude",
          "type": "string"
        },
        {
          "internalType": "string",
          "name": "_longitude",
          "type": "string"
        }
      ],
      "payable": false,
      "stateMutability": "view",
      "type": "function"
    }
  ],
  "bytecode": "0x60806040523480156200001157600080fd5b50604051620031ed380380620031ed83398181016040526200003791908101906200020b565b84600090805190602001906200004f92919062000100565b5083600190805190602001906200006892919062000100565b5082600290805190602001906200008192919062000100565b5081600390805190602001906200009a92919062000100565b508060049080519060200190620000b392919062000100565b5033600560006101000a81548173ffffffffffffffffffffffffffffffffffffffff021916908373ffffffffffffffffffffffffffffffffffffffff16021790555050505050506200039b565b828054600181600116156101000203166002900490600052602060002090601f016020900481019282601f106200014357805160ff191683800117855562000174565b8280016001018555821562000174579182015b828111156200017357825182559160200191906001019062000156565b5b50905062000183919062000187565b5090565b620001ac91905b80821115620001a85760008160009055506001016200018e565b5090565b90565b600082601f830112620001c157600080fd5b8151620001d8620001d28262000338565b6200030a565b91508082526020830160208301858383011115620001f557600080fd5b6200020283828462000365565b50505092915050565b600080600080600060a086880312156200022457600080fd5b600086015167ffffffffffffffff8111156200023f57600080fd5b6200024d88828901620001af565b955050602086015167ffffffffffffffff8111156200026b57600080fd5b6200027988828901620001af565b945050604086015167ffffffffffffffff8111156200029757600080fd5b620002a588828901620001af565b935050606086015167ffffffffffffffff811115620002c357600080fd5b620002d188828901620001af565b925050608086015167ffffffffffffffff811115620002ef57600080fd5b620002fd88828901620001af565b9150509295509295909350565b6000604051905081810181811067ffffffffffffffff821117156200032e57600080fd5b8060405250919050565b600067ffffffffffffffff8211156200035057600080fd5b601f19601f8301169050602081019050919050565b60005b838110156200038557808201518184015260208101905062000368565b8381111562000395576000848401525b50505050565b612e4280620003ab6000396000f3fe60806040523480156200001157600080fd5b5060043610620000945760003560e01c80636ba022ac11620000635780636ba022ac14620001255780638da5cb5b1462000145578063af640d0f1462000167578063b706bc1d14620001895762000094565b806306fdde0314620000995780634fd7d76a14620000bb578063589af69c14620000dd578063594c175214620000ff575b600080fd5b620000a3620001ab565b604051620000b2919062000e6f565b60405180910390f35b620000c56200024d565b604051620000d4919062000e6f565b60405180910390f35b620000e7620002ef565b604051620000f6919062000e6f565b60405180910390f35b6200010962000391565b6040516200011c95949392919062000f15565b60405180910390f35b6200014360048036036200013d919081019062000b3e565b620006c5565b005b6200014f620007e0565b6040516200015e919062000e52565b60405180910390f35b6200017162000806565b60405162000180919062000e6f565b60405180910390f35b62000193620008a8565b604051620001a2919062000e6f565b60405180910390f35b60018054600181600116156101000203166002900480601f016020809104026020016040519081016040528092919081815260200182805460018160011615610100020316600290048015620002455780601f10620002195761010080835404028352916020019162000245565b820191906000526020600020905b8154815290600101906020018083116200022757829003601f168201915b505050505081565b60038054600181600116156101000203166002900480601f016020809104026020016040519081016040528092919081815260200182805460018160011615610100020316600290048015620002e75780601f10620002bb57610100808354040283529160200191620002e7565b820191906000526020600020905b815481529060010190602001808311620002c957829003601f168201915b505050505081565b60048054600181600116156101000203166002900480601f016020809104026020016040519081016040528092919081815260200182805460018160011615610100020316600290048015620003895780601f106200035d5761010080835404028352916020019162000389565b820191906000526020600020905b8154815290600101906020018083116200036b57829003601f168201915b505050505081565b606080606080606060008054600181600116156101000203166002900480601f016020809104026020016040519081016040528092919081815260200182805460018160011615610100020316600290048015620004335780601f10620004075761010080835404028352916020019162000433565b820191906000526020600020905b8154815290600101906020018083116200041557829003601f168201915b5050505050945060018054600181600116156101000203166002900480601f016020809104026020016040519081016040528092919081815260200182805460018160011615610100020316600290048015620004d45780601f10620004a857610100808354040283529160200191620004d4565b820191906000526020600020905b815481529060010190602001808311620004b657829003601f168201915b5050505050935060028054600181600116156101000203166002900480601f016020809104026020016040519081016040528092919081815260200182805460018160011615610100020316600290048015620005755780601f10620005495761010080835404028352916020019162000575565b820191906000526020600020905b8154815290600101906020018083116200055757829003601f168201915b5050505050925060038054600181600116156101000203166002900480601f016020809104026020016040519081016040528092919081815260200182805460018160011615610100020316600290048015620006165780601f10620005ea5761010080835404028352916020019162000616565b820191906000526020600020905b815481529060010190602001808311620005f857829003601f168201915b5050505050915060048054600181600116156101000203166002900480601f016020809104026020016040519081016040528092919081815260200182805460018160011615610100020316600290048015620006b75780601f106200068b57610100808354040283529160200191620006b7565b820191906000526020600020905b8154815290600101906020018083116200069957829003601f168201915b505050505090509091929394565b600560009054906101000a900473ffffffffffffffffffffffffffffffffffffffff1673ffffffffffffffffffffffffffffffffffffffff163373ffffffffffffffffffffffffffffffffffffffff161462000758576040517f08c379a00000000000000000000000000000000000000000000000000000000081526004016200074f9062000f95565b60405180910390fd5b60008284308489896040516200076e906200094a565b6200077f9695949392919062000e93565b604051809103906000f0801580156200079c573d6000803e3d6000fd5b5090507fa81c57a62896a7d4e14d6c8a42cf5ed8097ecc9393bbd16e4e3b46e21e25107281604051620007d0919062000e52565b60405180910390a1505050505050565b600560009054906101000a900473ffffffffffffffffffffffffffffffffffffffff1681565b60008054600181600116156101000203166002900480601f016020809104026020016040519081016040528092919081815260200182805460018160011615610100020316600290048015620008a05780601f106200087457610100808354040283529160200191620008a0565b820191906000526020600020905b8154815290600101906020018083116200088257829003601f168201915b505050505081565b60028054600181600116156101000203166002900480601f016020809104026020016040519081016040528092919081815260200182805460018160011615610100020316600290048015620009425780601f10620009165761010080835404028352916020019162000942565b820191906000526020600020905b8154815290600101906020018083116200092457829003601f168201915b505050505081565b611be4806200121c83390190565b6000813590506200096981620011d6565b92915050565b600082601f8301126200098157600080fd5b813562000998620009928262000fe5565b62000fb7565b9150818183526020840193506020810190508360005b83811015620009e25781358601620009c7888262000ad2565b845260208401935060208301925050600181019050620009ae565b5050505092915050565b600081359050620009fd81620011f0565b92915050565b60008135905062000a14816200120a565b92915050565b600082601f83011262000a2c57600080fd5b813562000a4362000a3d826200100e565b62000fb7565b9150808252602083016020830185838301111562000a6057600080fd5b62000a6d83828462001172565b50505092915050565b600082601f83011262000a8857600080fd5b813562000a9f62000a99826200103b565b62000fb7565b9150808252602083016020830185838301111562000abc57600080fd5b62000ac983828462001172565b50505092915050565b60006040828403121562000ae557600080fd5b62000af1604062000fb7565b9050600082013567ffffffffffffffff81111562000b0e57600080fd5b62000b1c8482850162000a1a565b600083015250602062000b328482850162000958565b60208301525092915050565b600080600080600060a0868803121562000b5757600080fd5b600086013567ffffffffffffffff81111562000b7257600080fd5b62000b80888289016200096f565b955050602086013567ffffffffffffffff81111562000b9e57600080fd5b62000bac888289016200096f565b945050604062000bbf88828901620009ec565b935050606086013567ffffffffffffffff81111562000bdd57600080fd5b62000beb8882890162000a76565b925050608062000bfe8882890162000a03565b9150509295509295909350565b600062000c19838362000e11565b905092915050565b62000c2c81620010d9565b82525050565b62000c3d81620010d9565b82525050565b600062000c508262001078565b62000c5c8185620010a6565b93508360208202850162000c708562001068565b8060005b8581101562000cb2578484038952815162000c90858262000c0b565b945062000c9d8362001099565b925060208a0199505060018101905062000c74565b50829750879550505050505092915050565b62000ccf8162001136565b82525050565b62000ce0816200115e565b82525050565b600062000cf3826200108e565b62000cff8185620010c8565b935062000d1181856020860162001181565b62000d1c81620011b7565b840191505092915050565b600062000d348262001083565b62000d408185620010b7565b935062000d5281856020860162001181565b62000d5d81620011b7565b840191505092915050565b600062000d758262001083565b62000d818185620010c8565b935062000d9381856020860162001181565b62000d9e81620011b7565b840191505092915050565b600062000db8602783620010c8565b91507f4f6e6c7920746865206163746f722063616e206372656174652061207472616e60008301527f73616374696f6e000000000000000000000000000000000000000000000000006020830152604082019050919050565b6000604083016000830151848203600086015262000e30828262000d27565b915050602083015162000e47602086018262000c21565b508091505092915050565b600060208201905062000e69600083018462000c32565b92915050565b6000602082019050818103600083015262000e8b818462000d68565b905092915050565b600060c082019050818103600083015262000eaf818962000ce6565b905062000ec0602083018862000cc4565b62000ecf604083018762000cc4565b62000ede606083018662000cd5565b818103608083015262000ef2818562000c43565b905081810360a083015262000f08818462000c43565b9050979650505050505050565b600060a082019050818103600083015262000f31818862000ce6565b9050818103602083015262000f47818762000ce6565b9050818103604083015262000f5d818662000ce6565b9050818103606083015262000f73818562000ce6565b9050818103608083015262000f89818462000ce6565b90509695505050505050565b6000602082019050818103600083015262000fb08162000da9565b9050919050565b6000604051905081810181811067ffffffffffffffff8211171562000fdb57600080fd5b8060405250919050565b600067ffffffffffffffff82111562000ffd57600080fd5b602082029050602081019050919050565b600067ffffffffffffffff8211156200102657600080fd5b601f19601f8301169050602081019050919050565b600067ffffffffffffffff8211156200105357600080fd5b601f19601f8301169050602081019050919050565b6000819050602082019050919050565b600081519050919050565b600081519050919050565b600081519050919050565b6000602082019050919050565b600082825260208201905092915050565b600082825260208201905092915050565b600082825260208201905092915050565b6000620010e68262001116565b9050919050565b6000620010fa82620010d9565b9050919050565b60008190506200111182620011c8565b919050565b600073ffffffffffffffffffffffffffffffffffffffff82169050919050565b600062001143826200114a565b9050919050565b6000620011578262001116565b9050919050565b60006200116b8262001101565b9050919050565b82818337600083830152505050565b60005b83811015620011a157808201518184015260208101905062001184565b83811115620011b1576000848401525b50505050565b6000601f19601f8301169050919050565b60058110620011d357fe5b50565b620011e181620010d9565b8114620011ed57600080fd5b50565b620011fb81620010ed565b81146200120757600080fd5b50565b600581106200121857600080fd5b5056fe60806040523480156200001157600080fd5b5060405162001be438038062001be48339818101604052620000379190810190620005ef565b85600090805190602001906200004f929190620002d3565b5083600260006101000a81548173ffffffffffffffffffffffffffffffffffffffff021916908373ffffffffffffffffffffffffffffffffffffffff16021790555084600160006101000a81548173ffffffffffffffffffffffffffffffffffffffff021916908373ffffffffffffffffffffffffffffffffffffffff1602179055504260038190555082600460006101000a81548160ff02191690836004811115620000f857fe5b021790555060008090505b8251811015620001c65760058382815181106200011c57fe5b60200260200101519080600181540180825580915050906001820390600052602060002090600202016000909192909190915060008201518160000190805190602001906200016d9291906200035a565b5060208201518160010160006101000a81548173ffffffffffffffffffffffffffffffffffffffff021916908373ffffffffffffffffffffffffffffffffffffffff160217905550505050808060010191505062000103565b5060008090505b815181101562000290576006828281518110620001e657fe5b6020026020010151908060018154018082558091505090600182039060005260206000209060020201600090919290919091506000820151816000019080519060200190620002379291906200035a565b5060208201518160010160006101000a81548173ffffffffffffffffffffffffffffffffffffffff021916908373ffffffffffffffffffffffffffffffffffffffff1602179055505050508080600101915050620001cd565b506000600760006101000a81548160ff0219169083151502179055506000600760016101000a81548160ff02191690831515021790555050505050505062000844565b828054600181600116156101000203166002900490600052602060002090601f016020900481019282601f106200031657805160ff191683800117855562000347565b8280016001018555821562000347579182015b828111156200034657825182559160200191906001019062000329565b5b509050620003569190620003e1565b5090565b828054600181600116156101000203166002900490600052602060002090601f016020900481019282601f106200039d57805160ff1916838001178555620003ce565b82800160010185558215620003ce579182015b82811115620003cd578251825591602001919060010190620003b0565b5b509050620003dd9190620003e1565b5090565b6200040691905b8082111562000402576000816000905550600101620003e8565b5090565b90565b6000815190506200041a81620007ff565b92915050565b600082601f8301126200043257600080fd5b8151620004496200044382620006fe565b620006d0565b9150818183526020840193506020810190508360005b8381101562000493578151860162000478888262000583565b8452602084019350602083019250506001810190506200045f565b5050505092915050565b600081519050620004ae8162000819565b92915050565b600081519050620004c58162000833565b92915050565b600082601f830112620004dd57600080fd5b8151620004f4620004ee8262000727565b620006d0565b915080825260208301602083018583830111156200051157600080fd5b6200051e838284620007c9565b50505092915050565b600082601f8301126200053957600080fd5b8151620005506200054a8262000754565b620006d0565b915080825260208301602083018583830111156200056d57600080fd5b6200057a838284620007c9565b50505092915050565b6000604082840312156200059657600080fd5b620005a26040620006d0565b9050600082015167ffffffffffffffff811115620005bf57600080fd5b620005cd84828501620004cb565b6000830152506020620005e38482850162000409565b60208301525092915050565b60008060008060008060c087890312156200060957600080fd5b600087015167ffffffffffffffff8111156200062457600080fd5b6200063289828a0162000527565b96505060206200064589828a016200049d565b95505060406200065889828a016200049d565b94505060606200066b89828a01620004b4565b935050608087015167ffffffffffffffff8111156200068957600080fd5b6200069789828a0162000420565b92505060a087015167ffffffffffffffff811115620006b557600080fd5b620006c389828a0162000420565b9150509295509295509295565b6000604051905081810181811067ffffffffffffffff82111715620006f457600080fd5b8060405250919050565b600067ffffffffffffffff8211156200071657600080fd5b602082029050602081019050919050565b600067ffffffffffffffff8211156200073f57600080fd5b601f19601f8301169050602081019050919050565b600067ffffffffffffffff8211156200076c57600080fd5b601f19601f8301169050602081019050919050565b60006200078e82620007a9565b9050919050565b6000620007a28262000781565b9050919050565b600073ffffffffffffffffffffffffffffffffffffffff82169050919050565b60005b83811015620007e9578082015181840152602081019050620007cc565b83811115620007f9576000848401525b50505050565b6200080a8162000781565b81146200081657600080fd5b50565b620008248162000795565b81146200083057600080fd5b50565b600581106200084157600080fd5b50565b61139080620008546000396000f3fe608060405234801561001057600080fd5b50600436106100ea5760003560e01c8063651076161161008c5780637db34768116100665780637db347681461022d5780639923c65814610253578063b90be96614610271578063f6b6e4f31461028f576100ea565b806365107616146101c05780637150d8ae146101f15780637b3529621461020f576100ea565b8063323046b1116100c8578063323046b1146101355780635051a5ec1461015357806355c720aa146101715780635817bcd7146101a2576100ea565b806302afc23f146100ef57806308551a53146100f95780632cf87b1314610117575b600080fd5b6100f7610299565b005b61010161038a565b60405161010e9190611087565b60405180910390f35b61011f6103b0565b60405161012c91906110a2565b60405180910390f35b61013d6103c3565b60405161014a91906111b1565b60405180910390f35b61015b6103c9565b604051610168919061106c565b60405180910390f35b61018b60048036036101869190810190610e56565b6103dc565b604051610199929190611181565b60405180910390f35b6101aa6104c5565b6040516101b7919061104a565b60405180910390f35b6101da60048036036101d59190810190610e56565b61061c565b6040516101e8929190611181565b60405180910390f35b6101f9610705565b6040516102069190611087565b60405180910390f35b61021761072b565b604051610224919061106c565b60405180910390f35b61023561073e565b60405161024a999897969594939291906110df565b60405180910390f35b61025b610b1d565b604051610268919061104a565b60405180910390f35b610279610c74565b60405161028691906110bd565b60405180910390f35b610297610d12565b005b600160009054906101000a900473ffffffffffffffffffffffffffffffffffffffff1673ffffffffffffffffffffffffffffffffffffffff16638da5cb5b6040518163ffffffff1660e01b815260040160206040518083038186803b15801561030157600080fd5b505afa158015610315573d6000803e3d6000fd5b505050506040513d601f19601f820116820180604052506103399190810190610e2d565b73ffffffffffffffffffffffffffffffffffffffff163373ffffffffffffffffffffffffffffffffffffffff161415610388576001600760006101000a81548160ff0219169083151502179055505b565b600260009054906101000a900473ffffffffffffffffffffffffffffffffffffffff1681565b600460009054906101000a900460ff1681565b60035481565b600760019054906101000a900460ff1681565b600681815481106103e957fe5b9060005260206000209060020201600091509050806000018054600181600116156101000203166002900480601f0160208091040260200160405190810160405280929190818152602001828054600181600116156101000203166002900480156104955780601f1061046a57610100808354040283529160200191610495565b820191906000526020600020905b81548152906001019060200180831161047857829003601f168201915b5050505050908060010160009054906101000a900473ffffffffffffffffffffffffffffffffffffffff16905082565b60606006805480602002602001604051908101604052809291908181526020016000905b828210156106135783829060005260206000209060020201604051806040016040529081600082018054600181600116156101000203166002900480601f0160208091040260200160405190810160405280929190818152602001828054600181600116156101000203166002900480156105a55780601f1061057a576101008083540402835291602001916105a5565b820191906000526020600020905b81548152906001019060200180831161058857829003601f168201915b505050505081526020016001820160009054906101000a900473ffffffffffffffffffffffffffffffffffffffff1673ffffffffffffffffffffffffffffffffffffffff1673ffffffffffffffffffffffffffffffffffffffff1681525050815260200190600101906104e9565b50505050905090565b6005818154811061062957fe5b9060005260206000209060020201600091509050806000018054600181600116156101000203166002900480601f0160208091040260200160405190810160405280929190818152602001828054600181600116156101000203166002900480156106d55780601f106106aa576101008083540402835291602001916106d5565b820191906000526020600020905b8154815290600101906020018083116106b857829003601f168201915b5050505050908060010160009054906101000a900473ffffffffffffffffffffffffffffffffffffffff16905082565b600160009054906101000a900473ffffffffffffffffffffffffffffffffffffffff1681565b600760009054906101000a900460ff1681565b606060008060608060008060008060008054600181600116156101000203166002900480601f0160208091040260200160405190810160405280929190818152602001828054600181600116156101000203166002900480156107e25780601f106107b7576101008083540402835291602001916107e2565b820191906000526020600020905b8154815290600101906020018083116107c557829003601f168201915b50505050509850600160009054906101000a900473ffffffffffffffffffffffffffffffffffffffff169750600260009054906101000a900473ffffffffffffffffffffffffffffffffffffffff1696506005805480602002602001604051908101604052809291908181526020016000905b8282101561097f5783829060005260206000209060020201604051806040016040529081600082018054600181600116156101000203166002900480601f0160208091040260200160405190810160405280929190818152602001828054600181600116156101000203166002900480156109115780601f106108e657610100808354040283529160200191610911565b820191906000526020600020905b8154815290600101906020018083116108f457829003601f168201915b505050505081526020016001820160009054906101000a900473ffffffffffffffffffffffffffffffffffffffff1673ffffffffffffffffffffffffffffffffffffffff1673ffffffffffffffffffffffffffffffffffffffff168152505081526020019060010190610855565b5050505095506006805480602002602001604051908101604052809291908181526020016000905b82821015610ad15783829060005260206000209060020201604051806040016040529081600082018054600181600116156101000203166002900480601f016020809104026020016040519081016040528092919081815260200182805460018160011615610100020316600290048015610a635780601f10610a3857610100808354040283529160200191610a63565b820191906000526020600020905b815481529060010190602001808311610a4657829003601f168201915b505050505081526020016001820160009054906101000a900473ffffffffffffffffffffffffffffffffffffffff1673ffffffffffffffffffffffffffffffffffffffff1673ffffffffffffffffffffffffffffffffffffffff1681525050815260200190600101906109a7565b505050509450600460009054906101000a900460ff1693506003549250600760009054906101000a900460ff169150600760019054906101000a900460ff169050909192939495969798565b60606005805480602002602001604051908101604052809291908181526020016000905b82821015610c6b5783829060005260206000209060020201604051806040016040529081600082018054600181600116156101000203166002900480601f016020809104026020016040519081016040528092919081815260200182805460018160011615610100020316600290048015610bfd5780601f10610bd257610100808354040283529160200191610bfd565b820191906000526020600020905b815481529060010190602001808311610be057829003601f168201915b505050505081526020016001820160009054906101000a900473ffffffffffffffffffffffffffffffffffffffff1673ffffffffffffffffffffffffffffffffffffffff1673ffffffffffffffffffffffffffffffffffffffff168152505081526020019060010190610b41565b50505050905090565b60008054600181600116156101000203166002900480601f016020809104026020016040519081016040528092919081815260200182805460018160011615610100020316600290048015610d0a5780601f10610cdf57610100808354040283529160200191610d0a565b820191906000526020600020905b815481529060010190602001808311610ced57829003601f168201915b505050505081565b600160009054906101000a900473ffffffffffffffffffffffffffffffffffffffff1673ffffffffffffffffffffffffffffffffffffffff16638da5cb5b6040518163ffffffff1660e01b815260040160206040518083038186803b158015610d7a57600080fd5b505afa158015610d8e573d6000803e3d6000fd5b505050506040513d601f19601f82011682018060405250610db29190810190610e2d565b73ffffffffffffffffffffffffffffffffffffffff163373ffffffffffffffffffffffffffffffffffffffff161415610e01576001600760016101000a81548160ff0219169083151502179055505b565b600081519050610e128161131f565b92915050565b600081359050610e2781611336565b92915050565b600060208284031215610e3f57600080fd5b6000610e4d84828501610e03565b91505092915050565b600060208284031215610e6857600080fd5b6000610e7684828501610e18565b91505092915050565b6000610e8b8383610ffe565b905092915050565b610e9c8161123d565b82525050565b610eab8161123d565b82525050565b6000610ebc826111dc565b610ec6818561120a565b935083602082028501610ed8856111cc565b8060005b85811015610f145784840389528151610ef58582610e7f565b9450610f00836111fd565b925060208a01995050600181019050610edc565b50829750879550505050505092915050565b610f2f8161124f565b82525050565b610f3e81611298565b82525050565b610f4d816112bc565b82525050565b6000610f5e826111f2565b610f68818561122c565b9350610f788185602086016112ce565b610f8181611301565b840191505092915050565b6000610f97826111e7565b610fa1818561121b565b9350610fb18185602086016112ce565b610fba81611301565b840191505092915050565b6000610fd0826111e7565b610fda818561122c565b9350610fea8185602086016112ce565b610ff381611301565b840191505092915050565b6000604083016000830151848203600086015261101b8282610f8c565b91505060208301516110306020860182610e93565b508091505092915050565b6110448161128e565b82525050565b600060208201905081810360008301526110648184610eb1565b905092915050565b60006020820190506110816000830184610f26565b92915050565b600060208201905061109c6000830184610f35565b92915050565b60006020820190506110b76000830184610f44565b92915050565b600060208201905081810360008301526110d78184610fc5565b905092915050565b60006101208201905081810360008301526110fa818c610f53565b9050611109602083018b610ea2565b611116604083018a610ea2565b81810360608301526111288189610eb1565b9050818103608083015261113c8188610eb1565b905061114b60a0830187610f44565b61115860c083018661103b565b61116560e0830185610f26565b611173610100830184610f26565b9a9950505050505050505050565b6000604082019050818103600083015261119b8185610fc5565b90506111aa6020830184610ea2565b9392505050565b60006020820190506111c6600083018461103b565b92915050565b6000819050602082019050919050565b600081519050919050565b600081519050919050565b600081519050919050565b6000602082019050919050565b600082825260208201905092915050565b600082825260208201905092915050565b600082825260208201905092915050565b60006112488261126e565b9050919050565b60008115159050919050565b600081905061126982611312565b919050565b600073ffffffffffffffffffffffffffffffffffffffff82169050919050565b6000819050919050565b60006112a3826112aa565b9050919050565b60006112b58261126e565b9050919050565b60006112c78261125b565b9050919050565b60005b838110156112ec5780820151818401526020810190506112d1565b838111156112fb576000848401525b50505050565b6000601f19601f8301169050919050565b6005811061131c57fe5b50565b6113288161123d565b811461133357600080fd5b50565b61133f8161128e565b811461134a57600080fd5b5056fea365627a7a723158204febe84cc5ba255e26882235a6d3cf46d76803624293c7d7b5be3590ef86ffa76c6578706572696d656e74616cf564736f6c63430005100040a365627a7a723158204151c0ff9d614aa5c48c119f65b6ac7871cb7f24f7af89a31b8756cab6175a326c6578706572696d656e74616cf564736f6c63430005100040",
  "source": "pragma solidity >=0.4.22 <0.9.0;\r\n\r\npragma experimental ABIEncoderV2;\r\n\r\ncontract Actor {\r\n    string public id;\r\n    string public name;\r\n    string public actorType;\r\n    string public latitude;\r\n    string public longitude;\r\n    address public owner;\r\n\r\n    constructor(\r\n        string memory _id,\r\n        string memory _name,\r\n        string memory _actorType,\r\n        string memory _latitude,\r\n        string memory _longitude\r\n    ) public {\r\n        id = _id;\r\n        name = _name;\r\n        actorType = _actorType;\r\n        latitude = _latitude;\r\n        longitude = _longitude;\r\n        owner = msg.sender;\r\n    }\r\n\r\n    event TransactionCreated(address _address);\r\n\r\n    function createTransaction(\r\n        Transaction.Product[] memory _productsInput,\r\n        Transaction.Product[] memory _productsOutput,\r\n        Actor _buyer,\r\n        string memory _idTransaction,\r\n        Transaction.TransportType _transport\r\n    ) public {\r\n        require(msg.sender == owner, \"Only the actor can create a transaction\");\r\n\r\n        Transaction newTransaction = new Transaction(\r\n                _idTransaction,\r\n                _buyer,\r\n                this,\r\n                _transport,\r\n                _productsInput,\r\n                _productsOutput\r\n            );\r\n        emit TransactionCreated(address(newTransaction));\r\n    }\r\n\r\n    function getActorInformations() external view returns(\r\n        string memory _id,\r\n        string memory _name,\r\n        string memory _actorType,\r\n        string memory _latitude,\r\n        string memory _longitude\r\n    ) {\r\n        _id = id;\r\n        _name = name;\r\n        _actorType = actorType;\r\n        _latitude = latitude;\r\n        _longitude = longitude;\r\n    }\r\n}\r\n\r\ncontract Transaction {\r\n    enum TransportType {Avion, Train, Bateau, Camion, Charette}\r\n\r\n    struct Product {\r\n        string productId;\r\n        address addressTransaction;\r\n    }\r\n\r\n    struct Products {\r\n        mapping(uint256 => Product) products;\r\n        uint256 size;\r\n    }\r\n\r\n    string public idTransaction;\r\n    Actor public buyer;\r\n    Actor public seller;\r\n    uint256 public date;\r\n    TransportType public transport;\r\n    Product[] public productsInput;\r\n    Product[] public productsOutput;\r\n    bool public isFinished;\r\n    bool public isAccepted;\r\n\r\n    constructor(\r\n        string memory _idTransaction,\r\n        Actor _buyer,\r\n        Actor _seller,\r\n        TransportType _transport,\r\n        Product[] memory _productsInput,\r\n        Product[] memory _productsOutput\r\n    ) public {\r\n        idTransaction = _idTransaction;\r\n        seller = _seller;\r\n        buyer = _buyer;\r\n        date = block.timestamp;\r\n        transport = _transport;\r\n        for (uint256 index = 0; index < _productsInput.length; index++) {\r\n            productsInput.push(_productsInput[index]);\r\n        }\r\n        for (uint256 index = 0; index < _productsOutput.length; index++) {\r\n            productsOutput.push(_productsOutput[index]);\r\n        }\r\n        isFinished = false;\r\n        isAccepted = false;\r\n    }\r\n\r\n    function acceptTransaction() external {\r\n        if (msg.sender == buyer.owner()) {\r\n            isAccepted = true;\r\n        }\r\n    }\r\n\r\n    function finishTransaction() external {\r\n        if (msg.sender == buyer.owner()) {\r\n            isFinished = true;\r\n        }\r\n    }\r\n\r\n    function getProductsInput() external view returns (Product[] memory) {\r\n        return productsInput;\r\n    }\r\n\r\n    function getProductsOutput() external view returns (Product[] memory) {\r\n        return productsOutput;\r\n    }\r\n\r\n    function getTransactionInformations() external view returns (\r\n        string memory _id, \r\n        address _buyerAddress, \r\n        address _sellerAddress, \r\n        Product[] memory _productsInput,\r\n        Product[] memory _productsOutput,\r\n        TransportType _transport,\r\n        uint256 _date,\r\n        bool _isFinished,\r\n        bool _isAccepted\r\n    ) {\r\n        _id = idTransaction;\r\n        _buyerAddress = address(buyer);\r\n        _sellerAddress = address(seller);\r\n        _productsInput = productsInput;\r\n        _productsOutput = productsOutput;\r\n        _transport = transport;\r\n        _date = date;\r\n        _isFinished = isFinished;\r\n        _isAccepted = isAccepted;\r\n    }\r\n}\r\n",
  "sourcePath": "C:/Users/Thibaut/Documents/4A - INSA Lyon/1 - Cours/Semestre 2/7 - PLD SMART/lowympact-blockchain/contracts/Lowympact.sol",
  "compiler": {
    "name": "solc",
    "version": "0.5.16+commit.9c3226ce.Emscripten.clang"
  },
  "schemaVersion": "3.3.3",
  "updatedAt": "2021-04-29T09:09:56.198Z",
  "devdoc": {
    "methods": {}
  },
  "userdoc": {
    "methods": {}
  }
}