{
  "contractName": "Actor",
  "abi": [
    {
      "inputs": [
        {
          "internalType": "string",
          "name": "_id",
          "type": "string"
        },
        {
          "internalType": "string",
          "name": "_name",
          "type": "string"
        },
        {
          "internalType": "string",
          "name": "_actorType",
          "type": "string"
        },
        {
          "internalType": "string",
          "name": "_latitude",
          "type": "string"
        },
        {
          "internalType": "string",
          "name": "_longitude",
          "type": "string"
        }
      ],
      "payable": false,
      "stateMutability": "nonpayable",
      "type": "constructor"
    },
    {
      "constant": true,
      "inputs": [],
      "name": "actorType",
      "outputs": [
        {
          "internalType": "string",
          "name": "",
          "type": "string"
        }
      ],
      "payable": false,
      "stateMutability": "view",
      "type": "function"
    },
    {
      "constant": true,
      "inputs": [],
      "name": "id",
      "outputs": [
        {
          "internalType": "string",
          "name": "",
          "type": "string"
        }
      ],
      "payable": false,
      "stateMutability": "view",
      "type": "function"
    },
    {
      "constant": true,
      "inputs": [],
      "name": "latitude",
      "outputs": [
        {
          "internalType": "string",
          "name": "",
          "type": "string"
        }
      ],
      "payable": false,
      "stateMutability": "view",
      "type": "function"
    },
    {
      "constant": true,
      "inputs": [],
      "name": "longitude",
      "outputs": [
        {
          "internalType": "string",
          "name": "",
          "type": "string"
        }
      ],
      "payable": false,
      "stateMutability": "view",
      "type": "function"
    },
    {
      "constant": true,
      "inputs": [],
      "name": "name",
      "outputs": [
        {
          "internalType": "string",
          "name": "",
          "type": "string"
        }
      ],
      "payable": false,
      "stateMutability": "view",
      "type": "function"
    },
    {
      "constant": true,
      "inputs": [],
      "name": "owner",
      "outputs": [
        {
          "internalType": "address",
          "name": "",
          "type": "address"
        }
      ],
      "payable": false,
      "stateMutability": "view",
      "type": "function"
    },
    {
      "constant": false,
      "inputs": [
        {
          "components": [
            {
              "internalType": "uint256",
              "name": "productsInputId",
              "type": "uint256"
            },
            {
              "internalType": "address",
              "name": "addressTransaction",
              "type": "address"
            }
          ],
          "internalType": "struct Transaction.Product[]",
          "name": "_productsInput",
          "type": "tuple[]"
        },
        {
          "components": [
            {
              "internalType": "uint256",
              "name": "productsInputId",
              "type": "uint256"
            },
            {
              "internalType": "address",
              "name": "addressTransaction",
              "type": "address"
            }
          ],
          "internalType": "struct Transaction.Product[]",
          "name": "_productsOutput",
          "type": "tuple[]"
        },
        {
          "internalType": "contract Actor",
          "name": "_buyer",
          "type": "address"
        },
        {
          "internalType": "string",
          "name": "_idTransaction",
          "type": "string"
        },
        {
          "internalType": "enum Transaction.TransportType",
          "name": "_transport",
          "type": "uint8"
        }
      ],
      "name": "createTransaction",
      "outputs": [
        {
          "internalType": "contract Transaction",
          "name": "newTransaction",
          "type": "address"
        }
      ],
      "payable": false,
      "stateMutability": "nonpayable",
      "type": "function"
    }
  ],
  "bytecode": "0x60806040523480156200001157600080fd5b506040516200214b3803806200214b83398181016040526200003791908101906200020b565b84600090805190602001906200004f92919062000100565b5083600190805190602001906200006892919062000100565b5082600290805190602001906200008192919062000100565b5081600390805190602001906200009a92919062000100565b508060049080519060200190620000b392919062000100565b5033600560006101000a81548173ffffffffffffffffffffffffffffffffffffffff021916908373ffffffffffffffffffffffffffffffffffffffff16021790555050505050506200039b565b828054600181600116156101000203166002900490600052602060002090601f016020900481019282601f106200014357805160ff191683800117855562000174565b8280016001018555821562000174579182015b828111156200017357825182559160200191906001019062000156565b5b50905062000183919062000187565b5090565b620001ac91905b80821115620001a85760008160009055506001016200018e565b5090565b90565b600082601f830112620001c157600080fd5b8151620001d8620001d28262000338565b6200030a565b91508082526020830160208301858383011115620001f557600080fd5b6200020283828462000365565b50505092915050565b600080600080600060a086880312156200022457600080fd5b600086015167ffffffffffffffff8111156200023f57600080fd5b6200024d88828901620001af565b955050602086015167ffffffffffffffff8111156200026b57600080fd5b6200027988828901620001af565b945050604086015167ffffffffffffffff8111156200029757600080fd5b620002a588828901620001af565b935050606086015167ffffffffffffffff811115620002c357600080fd5b620002d188828901620001af565b925050608086015167ffffffffffffffff811115620002ef57600080fd5b620002fd88828901620001af565b9150509295509295909350565b6000604051905081810181811067ffffffffffffffff821117156200032e57600080fd5b8060405250919050565b600067ffffffffffffffff8211156200035057600080fd5b601f19601f8301169050602081019050919050565b60005b838110156200038557808201518184015260208101905062000368565b8381111562000395576000848401525b50505050565b611da080620003ab6000396000f3fe60806040523480156200001157600080fd5b5060043610620000885760003560e01c8063589af69c1162000063578063589af69c14620001075780638da5cb5b1462000129578063af640d0f146200014b578063b706bc1d146200016d5762000088565b806306fdde03146200008d578063093425ca14620000af5780634fd7d76a14620000e5575b600080fd5b620000976200018f565b604051620000a6919062000a74565b60405180910390f35b620000cd6004803603620000c7919081019062000766565b62000231565b604051620000dc919062000a57565b60405180910390f35b620000ef62000312565b604051620000fe919062000a74565b60405180910390f35b62000111620003b4565b60405162000120919062000a74565b60405180910390f35b6200013362000456565b60405162000142919062000a3a565b60405180910390f35b620001556200047c565b60405162000164919062000a74565b60405180910390f35b620001776200051e565b60405162000186919062000a74565b60405180910390f35b60018054600181600116156101000203166002900480601f016020809104026020016040519081016040528092919081815260200182805460018160011615610100020316600290048015620002295780601f10620001fd5761010080835404028352916020019162000229565b820191906000526020600020905b8154815290600101906020018083116200020b57829003601f168201915b505050505081565b6000600560009054906101000a900473ffffffffffffffffffffffffffffffffffffffff1673ffffffffffffffffffffffffffffffffffffffff163373ffffffffffffffffffffffffffffffffffffffff1614620002c6576040517f08c379a0000000000000000000000000000000000000000000000000000000008152600401620002bd9062000b0a565b60405180910390fd5b8284838888604051620002d990620005c0565b620002e995949392919062000a98565b604051809103906000f08015801562000306573d6000803e3d6000fd5b50905095945050505050565b60038054600181600116156101000203166002900480601f016020809104026020016040519081016040528092919081815260200182805460018160011615610100020316600290048015620003ac5780601f106200038057610100808354040283529160200191620003ac565b820191906000526020600020905b8154815290600101906020018083116200038e57829003601f168201915b505050505081565b60048054600181600116156101000203166002900480601f0160208091040260200160405190810160405280929190818152602001828054600181600116156101000203166002900480156200044e5780601f1062000422576101008083540402835291602001916200044e565b820191906000526020600020905b8154815290600101906020018083116200043057829003601f168201915b505050505081565b600560009054906101000a900473ffffffffffffffffffffffffffffffffffffffff1681565b60008054600181600116156101000203166002900480601f016020809104026020016040519081016040528092919081815260200182805460018160011615610100020316600290048015620005165780601f10620004ea5761010080835404028352916020019162000516565b820191906000526020600020905b815481529060010190602001808311620004f857829003601f168201915b505050505081565b60028054600181600116156101000203166002900480601f016020809104026020016040519081016040528092919081815260200182805460018160011615610100020316600290048015620005b85780601f106200058c57610100808354040283529160200191620005b8565b820191906000526020600020905b8154815290600101906020018083116200059a57829003601f168201915b505050505081565b610fbf8062000d9f83390190565b600081359050620005df8162000d3f565b92915050565b600082601f830112620005f757600080fd5b81356200060e620006088262000b5a565b62000b2c565b915081818352602084019350602081019050838560408402820111156200063457600080fd5b60005b838110156200066857816200064d8882620006fc565b84526020840193506040830192505060018101905062000637565b5050505092915050565b600081359050620006838162000d59565b92915050565b6000813590506200069a8162000d73565b92915050565b600082601f830112620006b257600080fd5b8135620006c9620006c38262000b83565b62000b2c565b91508082526020830160208301858383011115620006e657600080fd5b620006f383828462000cdb565b50505092915050565b6000604082840312156200070f57600080fd5b6200071b604062000b2c565b905060006200072d848285016200074f565b60008301525060206200074384828501620005ce565b60208301525092915050565b600081359050620007608162000d84565b92915050565b600080600080600060a086880312156200077f57600080fd5b600086013567ffffffffffffffff8111156200079a57600080fd5b620007a888828901620005e5565b955050602086013567ffffffffffffffff811115620007c657600080fd5b620007d488828901620005e5565b9450506040620007e78882890162000672565b935050606086013567ffffffffffffffff8111156200080557600080fd5b6200081388828901620006a0565b9250506080620008268882890162000689565b9150509295509295909350565b6000620008418383620009f6565b60408301905092915050565b620008588162000c10565b82525050565b620008698162000c10565b82525050565b60006200087c8262000bc0565b62000888818562000bee565b9350620008958362000bb0565b8060005b83811015620008cc578151620008b0888262000833565b9750620008bd8362000be1565b92505060018101905062000899565b5085935050505092915050565b620008e48162000c77565b82525050565b620008f58162000c9f565b82525050565b620009068162000cc7565b82525050565b6000620009198262000bd6565b62000925818562000bff565b93506200093781856020860162000cea565b620009428162000d20565b840191505092915050565b60006200095a8262000bcb565b62000966818562000bff565b93506200097881856020860162000cea565b620009838162000d20565b840191505092915050565b60006200099d60278362000bff565b91507f4f6e6c7920746865206163746f722063616e206372656174652061207472616e60008301527f73616374696f6e000000000000000000000000000000000000000000000000006020830152604082019050919050565b60408201600082015162000a0e600085018262000a29565b50602082015162000a2360208501826200084d565b50505050565b62000a348162000c6d565b82525050565b600060208201905062000a5160008301846200085e565b92915050565b600060208201905062000a6e6000830184620008ea565b92915050565b6000602082019050818103600083015262000a9081846200094d565b905092915050565b600060a082019050818103600083015262000ab481886200090c565b905062000ac56020830187620008d9565b62000ad46040830186620008fb565b818103606083015262000ae881856200086f565b9050818103608083015262000afe81846200086f565b90509695505050505050565b6000602082019050818103600083015262000b25816200098e565b9050919050565b6000604051905081810181811067ffffffffffffffff8211171562000b5057600080fd5b8060405250919050565b600067ffffffffffffffff82111562000b7257600080fd5b602082029050602081019050919050565b600067ffffffffffffffff82111562000b9b57600080fd5b601f19601f8301169050602081019050919050565b6000819050602082019050919050565b600081519050919050565b600081519050919050565b600081519050919050565b6000602082019050919050565b600082825260208201905092915050565b600082825260208201905092915050565b600062000c1d8262000c4d565b9050919050565b600062000c318262000c10565b9050919050565b600081905062000c488262000d31565b919050565b600073ffffffffffffffffffffffffffffffffffffffff82169050919050565b6000819050919050565b600062000c848262000c8b565b9050919050565b600062000c988262000c4d565b9050919050565b600062000cac8262000cb3565b9050919050565b600062000cc08262000c4d565b9050919050565b600062000cd48262000c38565b9050919050565b82818337600083830152505050565b60005b8381101562000d0a57808201518184015260208101905062000ced565b8381111562000d1a576000848401525b50505050565b6000601f19601f8301169050919050565b6005811062000d3c57fe5b50565b62000d4a8162000c10565b811462000d5657600080fd5b50565b62000d648162000c24565b811462000d7057600080fd5b50565b6005811062000d8157600080fd5b50565b62000d8f8162000c6d565b811462000d9b57600080fd5b5056fe60806040523480156200001157600080fd5b5060405162000fbf38038062000fbf8339818101604052620000379190810190620004ae565b84600090805190602001906200004f92919062000267565b5083600160006101000a81548173ffffffffffffffffffffffffffffffffffffffff021916908373ffffffffffffffffffffffffffffffffffffffff1602179055504260038190555082600460006101000a81548160ff02191690836004811115620000b757fe5b021790555060008090505b825181101562000170576005828281518110620000db57fe5b6020026020010151908060018154018082558091505090600182039060005260206000209060020201600090919290919091506000820151816000015560208201518160010160006101000a81548173ffffffffffffffffffffffffffffffffffffffff021916908373ffffffffffffffffffffffffffffffffffffffff1602179055505050508080600101915050620000c2565b5060008090505b8151811015620002255760068282815181106200019057fe5b6020026020010151908060018154018082558091505090600182039060005260206000209060020201600090919290919091506000820151816000015560208201518160010160006101000a81548173ffffffffffffffffffffffffffffffffffffffff021916908373ffffffffffffffffffffffffffffffffffffffff160217905550505050808060010191505062000177565b506000600760006101000a81548160ff0219169083151502179055506000600760016101000a81548160ff0219169083151502179055505050505050620006e6565b828054600181600116156101000203166002900490600052602060002090601f016020900481019282601f10620002aa57805160ff1916838001178555620002db565b82800160010185558215620002db579182015b82811115620002da578251825591602001919060010190620002bd565b5b509050620002ea9190620002ee565b5090565b6200031391905b808211156200030f576000816000905550600101620002f5565b5090565b90565b600081519050620003278162000687565b92915050565b600082601f8301126200033f57600080fd5b8151620003566200035082620005a9565b6200057b565b915081818352602084019350602081019050838560408402820111156200037c57600080fd5b60005b83811015620003b0578162000395888262000444565b8452602084019350604083019250506001810190506200037f565b5050505092915050565b600081519050620003cb81620006a1565b92915050565b600081519050620003e281620006bb565b92915050565b600082601f830112620003fa57600080fd5b8151620004116200040b82620005d2565b6200057b565b915080825260208301602083018583830111156200042e57600080fd5b6200043b83828462000651565b50505092915050565b6000604082840312156200045757600080fd5b6200046360406200057b565b90506000620004758482850162000497565b60008301525060206200048b8482850162000316565b60208301525092915050565b600081519050620004a881620006cc565b92915050565b600080600080600060a08688031215620004c757600080fd5b600086015167ffffffffffffffff811115620004e257600080fd5b620004f088828901620003e8565b95505060206200050388828901620003ba565b94505060406200051688828901620003d1565b935050606086015167ffffffffffffffff8111156200053457600080fd5b62000542888289016200032d565b925050608086015167ffffffffffffffff8111156200056057600080fd5b6200056e888289016200032d565b9150509295509295909350565b6000604051905081810181811067ffffffffffffffff821117156200059f57600080fd5b8060405250919050565b600067ffffffffffffffff821115620005c157600080fd5b602082029050602081019050919050565b600067ffffffffffffffff821115620005ea57600080fd5b601f19601f8301169050602081019050919050565b60006200060c8262000627565b9050919050565b60006200062082620005ff565b9050919050565b600073ffffffffffffffffffffffffffffffffffffffff82169050919050565b6000819050919050565b60005b838110156200067157808201518184015260208101905062000654565b8381111562000681576000848401525b50505050565b6200069281620005ff565b81146200069e57600080fd5b50565b620006ac8162000613565b8114620006b857600080fd5b50565b60058110620006c957600080fd5b50565b620006d78162000647565b8114620006e357600080fd5b50565b6108c980620006f66000396000f3fe608060405234801561001057600080fd5b50600436106100a95760003560e01c806355c720aa1161007157806355c720aa1461013057806365107616146101615780637150d8ae146101925780637b352962146101b0578063b90be966146101ce578063f6b6e4f3146101ec576100a9565b806302afc23f146100ae57806308551a53146100b85780632cf87b13146100d6578063323046b1146100f45780635051a5ec14610112575b600080fd5b6100b66101f6565b005b6100c06102e7565b6040516100cd91906106be565b60405180910390f35b6100de61030d565b6040516100eb91906106d9565b60405180910390f35b6100fc610320565b6040516101099190610716565b60405180910390f35b61011a610326565b60405161012791906106a3565b60405180910390f35b61014a600480360361014591908101906105f6565b610339565b604051610158929190610731565b60405180910390f35b61017b600480360361017691908101906105f6565b61038a565b604051610189929190610731565b60405180910390f35b61019a6103db565b6040516101a791906106be565b60405180910390f35b6101b8610401565b6040516101c591906106a3565b60405180910390f35b6101d6610414565b6040516101e391906106f4565b60405180910390f35b6101f46104b2565b005b600160009054906101000a900473ffffffffffffffffffffffffffffffffffffffff1673ffffffffffffffffffffffffffffffffffffffff16638da5cb5b6040518163ffffffff1660e01b815260040160206040518083038186803b15801561025e57600080fd5b505afa158015610272573d6000803e3d6000fd5b505050506040513d601f19601f8201168201806040525061029691908101906105cd565b73ffffffffffffffffffffffffffffffffffffffff163373ffffffffffffffffffffffffffffffffffffffff1614156102e5576001600760006101000a81548160ff0219169083151502179055505b565b600260009054906101000a900473ffffffffffffffffffffffffffffffffffffffff1681565b600460009054906101000a900460ff1681565b60035481565b600760019054906101000a900460ff1681565b6006818154811061034657fe5b90600052602060002090600202016000915090508060000154908060010160009054906101000a900473ffffffffffffffffffffffffffffffffffffffff16905082565b6005818154811061039757fe5b90600052602060002090600202016000915090508060000154908060010160009054906101000a900473ffffffffffffffffffffffffffffffffffffffff16905082565b600160009054906101000a900473ffffffffffffffffffffffffffffffffffffffff1681565b600760009054906101000a900460ff1681565b60008054600181600116156101000203166002900480601f0160208091040260200160405190810160405280929190818152602001828054600181600116156101000203166002900480156104aa5780601f1061047f576101008083540402835291602001916104aa565b820191906000526020600020905b81548152906001019060200180831161048d57829003601f168201915b505050505081565b600160009054906101000a900473ffffffffffffffffffffffffffffffffffffffff1673ffffffffffffffffffffffffffffffffffffffff16638da5cb5b6040518163ffffffff1660e01b815260040160206040518083038186803b15801561051a57600080fd5b505afa15801561052e573d6000803e3d6000fd5b505050506040513d601f19601f8201168201806040525061055291908101906105cd565b73ffffffffffffffffffffffffffffffffffffffff163373ffffffffffffffffffffffffffffffffffffffff1614156105a1576001600760016101000a81548160ff0219169083151502179055505b565b6000815190506105b281610858565b92915050565b6000813590506105c78161086f565b92915050565b6000602082840312156105df57600080fd5b60006105ed848285016105a3565b91505092915050565b60006020828403121561060857600080fd5b6000610616848285016105b8565b91505092915050565b61062881610776565b82525050565b61063781610788565b82525050565b610646816107d1565b82525050565b610655816107f5565b82525050565b60006106668261075a565b6106708185610765565b9350610680818560208601610807565b6106898161083a565b840191505092915050565b61069d816107c7565b82525050565b60006020820190506106b8600083018461062e565b92915050565b60006020820190506106d3600083018461063d565b92915050565b60006020820190506106ee600083018461064c565b92915050565b6000602082019050818103600083015261070e818461065b565b905092915050565b600060208201905061072b6000830184610694565b92915050565b60006040820190506107466000830185610694565b610753602083018461061f565b9392505050565b600081519050919050565b600082825260208201905092915050565b6000610781826107a7565b9050919050565b60008115159050919050565b60008190506107a28261084b565b919050565b600073ffffffffffffffffffffffffffffffffffffffff82169050919050565b6000819050919050565b60006107dc826107e3565b9050919050565b60006107ee826107a7565b9050919050565b600061080082610794565b9050919050565b60005b8381101561082557808201518184015260208101905061080a565b83811115610834576000848401525b50505050565b6000601f19601f8301169050919050565b6005811061085557fe5b50565b61086181610776565b811461086c57600080fd5b50565b610878816107c7565b811461088357600080fd5b5056fea365627a7a723158206a9cb6ec99e7e2c813aaacf68ddaa7e7b737cffa091bc1c207cb28c026a67ebb6c6578706572696d656e74616cf564736f6c63430005100040a365627a7a723158201b77d0c0a1cca11eae5aac8433b2d227eabf340d366f61175a6c10e0a5c73bcd6c6578706572696d656e74616cf564736f6c63430005100040",
  "source": "pragma solidity >=0.4.22 <0.9.0;\n\npragma experimental ABIEncoderV2;\n\ncontract Actor {\n    string public id;\n    string public name;\n    string public actorType;\n    string public latitude;\n    string public longitude;\n    address public owner;\n\n    constructor(\n        string memory _id,\n        string memory _name,\n        string memory _actorType,\n        string memory _latitude,\n        string memory _longitude\n    ) public {\n        id = _id;\n        name = _name;\n        actorType = _actorType;\n        latitude = _latitude;\n        longitude = _longitude;\n        owner = msg.sender;\n    }\n\n    function createTransaction(\n        Transaction.Product[] memory _productsInput,\n        Transaction.Product[] memory _productsOutput,\n        Actor _buyer,\n        string memory _idTransaction,\n        Transaction.TransportType _transport\n    ) public returns (Transaction newTransaction) {\n        require(msg.sender == owner, \"Only the actor can create a transaction\");\n\n        return\n            new Transaction(\n                _idTransaction,\n                _buyer,\n                _transport,\n                _productsInput,\n                _productsOutput\n            );\n    }\n}\n\ncontract Transaction {\n    enum TransportType {Avion, Train, Bateau, Camion, Charette}\n\n    struct Product {\n        uint256 productsInputId;\n        address addressTransaction;\n    }\n\n    struct Products {\n        mapping(uint256 => Product) products;\n        uint256 size;\n    }\n\n    string public idTransaction;\n    Actor public buyer;\n    Actor public seller;\n    uint256 public date;\n    TransportType public transport;\n    Product[] public productsInput;\n    Product[] public productsOutput;\n    bool public isFinished;\n    bool public isAccepted;\n\n    constructor(\n        string memory _idTransaction,\n        Actor _buyer,\n        TransportType _transport,\n        Product[] memory _productsInput,\n        Product[] memory _productsOutput\n    ) public {\n        idTransaction = _idTransaction;\n        buyer = _buyer;\n        date = block.timestamp;\n        transport = _transport;\n        for (uint256 index = 0; index < _productsInput.length; index++) {\n            productsInput.push(_productsOutput[index]);\n        }\n        for (uint256 index = 0; index < _productsOutput.length; index++) {\n            productsOutput.push(_productsOutput[index]);\n        }\n        isFinished = false;\n        isAccepted = false;\n    }\n\n    function acceptTransaction() external {\n        if (msg.sender == buyer.owner()) {\n            isAccepted = true;\n        }\n    }\n\n    function finishTransaction() external {\n        if (msg.sender == buyer.owner()) {\n            isFinished = true;\n        }\n    }\n}\n",
  "sourcePath": "/Users/louisrob/Documents/Business/4IF/lowympact/lowympact-blockchain/contracts/Lowympact.sol",
  "compiler": {
    "name": "solc",
    "version": "0.5.16+commit.9c3226ce.Emscripten.clang"
  },
  "schemaVersion": "3.3.3",
  "updatedAt": "2021-04-27T09:25:56.540Z",
  "devdoc": {
    "methods": {}
  },
  "userdoc": {
    "methods": {}
  }
}