{
  "contractName": "Actor",
  "abi": [
    {
      "inputs": [
        {
          "internalType": "string",
          "name": "_id",
          "type": "string"
        },
        {
          "internalType": "string",
          "name": "_name",
          "type": "string"
        },
        {
          "internalType": "string",
          "name": "_actorType",
          "type": "string"
        },
        {
          "internalType": "string",
          "name": "_latitude",
          "type": "string"
        },
        {
          "internalType": "string",
          "name": "_longitude",
          "type": "string"
        }
      ],
      "payable": false,
      "stateMutability": "nonpayable",
      "type": "constructor"
    },
    {
      "anonymous": false,
      "inputs": [
        {
          "indexed": false,
          "internalType": "address",
          "name": "_address",
          "type": "address"
        }
      ],
      "name": "TransactionCreated",
      "type": "event"
    },
    {
      "constant": true,
      "inputs": [],
      "name": "actorType",
      "outputs": [
        {
          "internalType": "string",
          "name": "",
          "type": "string"
        }
      ],
      "payable": false,
      "stateMutability": "view",
      "type": "function"
    },
    {
      "constant": true,
      "inputs": [],
      "name": "id",
      "outputs": [
        {
          "internalType": "string",
          "name": "",
          "type": "string"
        }
      ],
      "payable": false,
      "stateMutability": "view",
      "type": "function"
    },
    {
      "constant": true,
      "inputs": [],
      "name": "latitude",
      "outputs": [
        {
          "internalType": "string",
          "name": "",
          "type": "string"
        }
      ],
      "payable": false,
      "stateMutability": "view",
      "type": "function"
    },
    {
      "constant": true,
      "inputs": [],
      "name": "longitude",
      "outputs": [
        {
          "internalType": "string",
          "name": "",
          "type": "string"
        }
      ],
      "payable": false,
      "stateMutability": "view",
      "type": "function"
    },
    {
      "constant": true,
      "inputs": [],
      "name": "name",
      "outputs": [
        {
          "internalType": "string",
          "name": "",
          "type": "string"
        }
      ],
      "payable": false,
      "stateMutability": "view",
      "type": "function"
    },
    {
      "constant": true,
      "inputs": [],
      "name": "owner",
      "outputs": [
        {
          "internalType": "address",
          "name": "",
          "type": "address"
        }
      ],
      "payable": false,
      "stateMutability": "view",
      "type": "function"
    },
    {
      "constant": false,
      "inputs": [
        {
          "components": [
            {
              "internalType": "string",
              "name": "productId",
              "type": "string"
            },
            {
              "internalType": "address",
              "name": "addressTransaction",
              "type": "address"
            }
          ],
          "internalType": "struct Transaction.Product[]",
          "name": "_productsInput",
          "type": "tuple[]"
        },
        {
          "components": [
            {
              "internalType": "string",
              "name": "productId",
              "type": "string"
            },
            {
              "internalType": "address",
              "name": "addressTransaction",
              "type": "address"
            }
          ],
          "internalType": "struct Transaction.Product[]",
          "name": "_productsOutput",
          "type": "tuple[]"
        },
        {
          "internalType": "contract Actor",
          "name": "_buyer",
          "type": "address"
        },
        {
          "internalType": "string",
          "name": "_idTransaction",
          "type": "string"
        },
        {
          "internalType": "enum Transaction.TransportType",
          "name": "_transport",
          "type": "uint8"
        }
      ],
      "name": "createTransaction",
      "outputs": [],
      "payable": false,
      "stateMutability": "nonpayable",
      "type": "function"
    }
  ],
  "bytecode": "0x60806040523480156200001157600080fd5b506040516200240f3803806200240f83398181016040526200003791908101906200020b565b84600090805190602001906200004f92919062000100565b5083600190805190602001906200006892919062000100565b5082600290805190602001906200008192919062000100565b5081600390805190602001906200009a92919062000100565b508060049080519060200190620000b392919062000100565b5033600560006101000a81548173ffffffffffffffffffffffffffffffffffffffff021916908373ffffffffffffffffffffffffffffffffffffffff16021790555050505050506200039b565b828054600181600116156101000203166002900490600052602060002090601f016020900481019282601f106200014357805160ff191683800117855562000174565b8280016001018555821562000174579182015b828111156200017357825182559160200191906001019062000156565b5b50905062000183919062000187565b5090565b620001ac91905b80821115620001a85760008160009055506001016200018e565b5090565b90565b600082601f830112620001c157600080fd5b8151620001d8620001d28262000338565b6200030a565b91508082526020830160208301858383011115620001f557600080fd5b6200020283828462000365565b50505092915050565b600080600080600060a086880312156200022457600080fd5b600086015167ffffffffffffffff8111156200023f57600080fd5b6200024d88828901620001af565b955050602086015167ffffffffffffffff8111156200026b57600080fd5b6200027988828901620001af565b945050604086015167ffffffffffffffff8111156200029757600080fd5b620002a588828901620001af565b935050606086015167ffffffffffffffff811115620002c357600080fd5b620002d188828901620001af565b925050608086015167ffffffffffffffff811115620002ef57600080fd5b620002fd88828901620001af565b9150509295509295909350565b6000604051905081810181811067ffffffffffffffff821117156200032e57600080fd5b8060405250919050565b600067ffffffffffffffff8211156200035057600080fd5b601f19601f8301169050602081019050919050565b60005b838110156200038557808201518184015260208101905062000368565b8381111562000395576000848401525b50505050565b61206480620003ab6000396000f3fe60806040523480156200001157600080fd5b5060043610620000885760003560e01c80636ba022ac11620000635780636ba022ac14620000f35780638da5cb5b1462000113578063af640d0f1462000135578063b706bc1d14620001575762000088565b806306fdde03146200008d5780634fd7d76a14620000af578063589af69c14620000d1575b600080fd5b6200009762000179565b604051620000a6919062000b07565b60405180910390f35b620000b96200021b565b604051620000c8919062000b07565b60405180910390f35b620000db620002bd565b604051620000ea919062000b07565b60405180910390f35b6200011160048036036200010b9190810190620007d6565b6200035f565b005b6200011d62000478565b6040516200012c919062000aea565b60405180910390f35b6200013f6200049e565b6040516200014e919062000b07565b60405180910390f35b6200016162000540565b60405162000170919062000b07565b60405180910390f35b60018054600181600116156101000203166002900480601f016020809104026020016040519081016040528092919081815260200182805460018160011615610100020316600290048015620002135780601f10620001e75761010080835404028352916020019162000213565b820191906000526020600020905b815481529060010190602001808311620001f557829003601f168201915b505050505081565b60038054600181600116156101000203166002900480601f016020809104026020016040519081016040528092919081815260200182805460018160011615610100020316600290048015620002b55780601f106200028957610100808354040283529160200191620002b5565b820191906000526020600020905b8154815290600101906020018083116200029757829003601f168201915b505050505081565b60048054600181600116156101000203166002900480601f016020809104026020016040519081016040528092919081815260200182805460018160011615610100020316600290048015620003575780601f106200032b5761010080835404028352916020019162000357565b820191906000526020600020905b8154815290600101906020018083116200033957829003601f168201915b505050505081565b600560009054906101000a900473ffffffffffffffffffffffffffffffffffffffff1673ffffffffffffffffffffffffffffffffffffffff163373ffffffffffffffffffffffffffffffffffffffff1614620003f2576040517f08c379a0000000000000000000000000000000000000000000000000000000008152600401620003e99062000b9d565b60405180910390fd5b600082848388886040516200040790620005e2565b6200041795949392919062000b2b565b604051809103906000f08015801562000434573d6000803e3d6000fd5b5090507fa81c57a62896a7d4e14d6c8a42cf5ed8097ecc9393bbd16e4e3b46e21e2510728160405162000468919062000aea565b60405180910390a1505050505050565b600560009054906101000a900473ffffffffffffffffffffffffffffffffffffffff1681565b60008054600181600116156101000203166002900480601f016020809104026020016040519081016040528092919081815260200182805460018160011615610100020316600290048015620005385780601f106200050c5761010080835404028352916020019162000538565b820191906000526020600020905b8154815290600101906020018083116200051a57829003601f168201915b505050505081565b60028054600181600116156101000203166002900480601f016020809104026020016040519081016040528092919081815260200182805460018160011615610100020316600290048015620005da5780601f10620005ae57610100808354040283529160200191620005da565b820191906000526020600020905b815481529060010190602001808311620005bc57829003601f168201915b505050505081565b6111fe8062000e2483390190565b600081359050620006018162000dde565b92915050565b600082601f8301126200061957600080fd5b8135620006306200062a8262000bed565b62000bbf565b9150818183526020840193506020810190508360005b838110156200067a57813586016200065f88826200076a565b84526020840193506020830192505060018101905062000646565b5050505092915050565b600081359050620006958162000df8565b92915050565b600081359050620006ac8162000e12565b92915050565b600082601f830112620006c457600080fd5b8135620006db620006d58262000c16565b62000bbf565b91508082526020830160208301858383011115620006f857600080fd5b6200070583828462000d7a565b50505092915050565b600082601f8301126200072057600080fd5b813562000737620007318262000c43565b62000bbf565b915080825260208301602083018583830111156200075457600080fd5b6200076183828462000d7a565b50505092915050565b6000604082840312156200077d57600080fd5b62000789604062000bbf565b9050600082013567ffffffffffffffff811115620007a657600080fd5b620007b484828501620006b2565b6000830152506020620007ca84828501620005f0565b60208301525092915050565b600080600080600060a08688031215620007ef57600080fd5b600086013567ffffffffffffffff8111156200080a57600080fd5b620008188882890162000607565b955050602086013567ffffffffffffffff8111156200083657600080fd5b620008448882890162000607565b9450506040620008578882890162000684565b935050606086013567ffffffffffffffff8111156200087557600080fd5b62000883888289016200070e565b925050608062000896888289016200069b565b9150509295509295909350565b6000620008b1838362000aa9565b905092915050565b620008c48162000ce1565b82525050565b620008d58162000ce1565b82525050565b6000620008e88262000c80565b620008f4818562000cae565b935083602082028501620009088562000c70565b8060005b858110156200094a5784840389528151620009288582620008a3565b9450620009358362000ca1565b925060208a019950506001810190506200090c565b50829750879550505050505092915050565b620009678162000d3e565b82525050565b620009788162000d66565b82525050565b60006200098b8262000c96565b62000997818562000cd0565b9350620009a981856020860162000d89565b620009b48162000dbf565b840191505092915050565b6000620009cc8262000c8b565b620009d8818562000cbf565b9350620009ea81856020860162000d89565b620009f58162000dbf565b840191505092915050565b600062000a0d8262000c8b565b62000a19818562000cd0565b935062000a2b81856020860162000d89565b62000a368162000dbf565b840191505092915050565b600062000a5060278362000cd0565b91507f4f6e6c7920746865206163746f722063616e206372656174652061207472616e60008301527f73616374696f6e000000000000000000000000000000000000000000000000006020830152604082019050919050565b6000604083016000830151848203600086015262000ac88282620009bf565b915050602083015162000adf6020860182620008b9565b508091505092915050565b600060208201905062000b016000830184620008ca565b92915050565b6000602082019050818103600083015262000b23818462000a00565b905092915050565b600060a082019050818103600083015262000b4781886200097e565b905062000b5860208301876200095c565b62000b6760408301866200096d565b818103606083015262000b7b8185620008db565b9050818103608083015262000b918184620008db565b90509695505050505050565b6000602082019050818103600083015262000bb88162000a41565b9050919050565b6000604051905081810181811067ffffffffffffffff8211171562000be357600080fd5b8060405250919050565b600067ffffffffffffffff82111562000c0557600080fd5b602082029050602081019050919050565b600067ffffffffffffffff82111562000c2e57600080fd5b601f19601f8301169050602081019050919050565b600067ffffffffffffffff82111562000c5b57600080fd5b601f19601f8301169050602081019050919050565b6000819050602082019050919050565b600081519050919050565b600081519050919050565b600081519050919050565b6000602082019050919050565b600082825260208201905092915050565b600082825260208201905092915050565b600082825260208201905092915050565b600062000cee8262000d1e565b9050919050565b600062000d028262000ce1565b9050919050565b600081905062000d198262000dd0565b919050565b600073ffffffffffffffffffffffffffffffffffffffff82169050919050565b600062000d4b8262000d52565b9050919050565b600062000d5f8262000d1e565b9050919050565b600062000d738262000d09565b9050919050565b82818337600083830152505050565b60005b8381101562000da957808201518184015260208101905062000d8c565b8381111562000db9576000848401525b50505050565b6000601f19601f8301169050919050565b6005811062000ddb57fe5b50565b62000de98162000ce1565b811462000df557600080fd5b50565b62000e038162000cf5565b811462000e0f57600080fd5b50565b6005811062000e2057600080fd5b5056fe60806040523480156200001157600080fd5b50604051620011fe380380620011fe8339818101604052620000379190810190620005ad565b84600090805190602001906200004f92919062000291565b5083600160006101000a81548173ffffffffffffffffffffffffffffffffffffffff021916908373ffffffffffffffffffffffffffffffffffffffff1602179055504260038190555082600460006101000a81548160ff02191690836004811115620000b757fe5b021790555060008090505b825181101562000185576005828281518110620000db57fe5b60200260200101519080600181540180825580915050906001820390600052602060002090600202016000909192909190915060008201518160000190805190602001906200012c92919062000318565b5060208201518160010160006101000a81548173ffffffffffffffffffffffffffffffffffffffff021916908373ffffffffffffffffffffffffffffffffffffffff1602179055505050508080600101915050620000c2565b5060008090505b81518110156200024f576006828281518110620001a557fe5b6020026020010151908060018154018082558091505090600182039060005260206000209060020201600090919290919091506000820151816000019080519060200190620001f692919062000318565b5060208201518160010160006101000a81548173ffffffffffffffffffffffffffffffffffffffff021916908373ffffffffffffffffffffffffffffffffffffffff16021790555050505080806001019150506200018c565b506000600760006101000a81548160ff0219169083151502179055506000600760016101000a81548160ff0219169083151502179055505050505050620007ee565b828054600181600116156101000203166002900490600052602060002090601f016020900481019282601f10620002d457805160ff191683800117855562000305565b8280016001018555821562000305579182015b8281111562000304578251825591602001919060010190620002e7565b5b5090506200031491906200039f565b5090565b828054600181600116156101000203166002900490600052602060002090601f016020900481019282601f106200035b57805160ff19168380011785556200038c565b828001600101855582156200038c579182015b828111156200038b5782518255916020019190600101906200036e565b5b5090506200039b91906200039f565b5090565b620003c491905b80821115620003c0576000816000905550600101620003a6565b5090565b90565b600081519050620003d881620007a9565b92915050565b600082601f830112620003f057600080fd5b8151620004076200040182620006a8565b6200067a565b9150818183526020840193506020810190508360005b8381101562000451578151860162000436888262000541565b8452602084019350602083019250506001810190506200041d565b5050505092915050565b6000815190506200046c81620007c3565b92915050565b6000815190506200048381620007dd565b92915050565b600082601f8301126200049b57600080fd5b8151620004b2620004ac82620006d1565b6200067a565b91508082526020830160208301858383011115620004cf57600080fd5b620004dc83828462000773565b50505092915050565b600082601f830112620004f757600080fd5b81516200050e6200050882620006fe565b6200067a565b915080825260208301602083018583830111156200052b57600080fd5b6200053883828462000773565b50505092915050565b6000604082840312156200055457600080fd5b6200056060406200067a565b9050600082015167ffffffffffffffff8111156200057d57600080fd5b6200058b8482850162000489565b6000830152506020620005a184828501620003c7565b60208301525092915050565b600080600080600060a08688031215620005c657600080fd5b600086015167ffffffffffffffff811115620005e157600080fd5b620005ef88828901620004e5565b955050602062000602888289016200045b565b9450506040620006158882890162000472565b935050606086015167ffffffffffffffff8111156200063357600080fd5b6200064188828901620003de565b925050608086015167ffffffffffffffff8111156200065f57600080fd5b6200066d88828901620003de565b9150509295509295909350565b6000604051905081810181811067ffffffffffffffff821117156200069e57600080fd5b8060405250919050565b600067ffffffffffffffff821115620006c057600080fd5b602082029050602081019050919050565b600067ffffffffffffffff821115620006e957600080fd5b601f19601f8301169050602081019050919050565b600067ffffffffffffffff8211156200071657600080fd5b601f19601f8301169050602081019050919050565b6000620007388262000753565b9050919050565b60006200074c826200072b565b9050919050565b600073ffffffffffffffffffffffffffffffffffffffff82169050919050565b60005b838110156200079357808201518184015260208101905062000776565b83811115620007a3576000848401525b50505050565b620007b4816200072b565b8114620007c057600080fd5b50565b620007ce816200073f565b8114620007da57600080fd5b50565b60058110620007eb57600080fd5b50565b610a0080620007fe6000396000f3fe608060405234801561001057600080fd5b50600436106100a95760003560e01c806355c720aa1161007157806355c720aa1461013057806365107616146101615780637150d8ae146101925780637b352962146101b0578063b90be966146101ce578063f6b6e4f3146101ec576100a9565b806302afc23f146100ae57806308551a53146100b85780632cf87b13146100d6578063323046b1146100f45780635051a5ec14610112575b600080fd5b6100b66101f6565b005b6100c06102e7565b6040516100cd91906107ee565b60405180910390f35b6100de61030d565b6040516100eb9190610809565b60405180910390f35b6100fc610320565b6040516101099190610876565b60405180910390f35b61011a610326565b60405161012791906107d3565b60405180910390f35b61014a60048036036101459190810190610726565b610339565b604051610158929190610846565b60405180910390f35b61017b60048036036101769190810190610726565b610422565b604051610189929190610846565b60405180910390f35b61019a61050b565b6040516101a791906107ee565b60405180910390f35b6101b8610531565b6040516101c591906107d3565b60405180910390f35b6101d6610544565b6040516101e39190610824565b60405180910390f35b6101f46105e2565b005b600160009054906101000a900473ffffffffffffffffffffffffffffffffffffffff1673ffffffffffffffffffffffffffffffffffffffff16638da5cb5b6040518163ffffffff1660e01b815260040160206040518083038186803b15801561025e57600080fd5b505afa158015610272573d6000803e3d6000fd5b505050506040513d601f19601f8201168201806040525061029691908101906106fd565b73ffffffffffffffffffffffffffffffffffffffff163373ffffffffffffffffffffffffffffffffffffffff1614156102e5576001600760006101000a81548160ff0219169083151502179055505b565b600260009054906101000a900473ffffffffffffffffffffffffffffffffffffffff1681565b600460009054906101000a900460ff1681565b60035481565b600760019054906101000a900460ff1681565b6006818154811061034657fe5b9060005260206000209060020201600091509050806000018054600181600116156101000203166002900480601f0160208091040260200160405190810160405280929190818152602001828054600181600116156101000203166002900480156103f25780601f106103c7576101008083540402835291602001916103f2565b820191906000526020600020905b8154815290600101906020018083116103d557829003601f168201915b5050505050908060010160009054906101000a900473ffffffffffffffffffffffffffffffffffffffff16905082565b6005818154811061042f57fe5b9060005260206000209060020201600091509050806000018054600181600116156101000203166002900480601f0160208091040260200160405190810160405280929190818152602001828054600181600116156101000203166002900480156104db5780601f106104b0576101008083540402835291602001916104db565b820191906000526020600020905b8154815290600101906020018083116104be57829003601f168201915b5050505050908060010160009054906101000a900473ffffffffffffffffffffffffffffffffffffffff16905082565b600160009054906101000a900473ffffffffffffffffffffffffffffffffffffffff1681565b600760009054906101000a900460ff1681565b60008054600181600116156101000203166002900480601f0160208091040260200160405190810160405280929190818152602001828054600181600116156101000203166002900480156105da5780601f106105af576101008083540402835291602001916105da565b820191906000526020600020905b8154815290600101906020018083116105bd57829003601f168201915b505050505081565b600160009054906101000a900473ffffffffffffffffffffffffffffffffffffffff1673ffffffffffffffffffffffffffffffffffffffff16638da5cb5b6040518163ffffffff1660e01b815260040160206040518083038186803b15801561064a57600080fd5b505afa15801561065e573d6000803e3d6000fd5b505050506040513d601f19601f8201168201806040525061068291908101906106fd565b73ffffffffffffffffffffffffffffffffffffffff163373ffffffffffffffffffffffffffffffffffffffff1614156106d1576001600760016101000a81548160ff0219169083151502179055505b565b6000815190506106e28161098f565b92915050565b6000813590506106f7816109a6565b92915050565b60006020828403121561070f57600080fd5b600061071d848285016106d3565b91505092915050565b60006020828403121561073857600080fd5b6000610746848285016106e8565b91505092915050565b610758816108ad565b82525050565b610767816108bf565b82525050565b61077681610908565b82525050565b6107858161092c565b82525050565b600061079682610891565b6107a0818561089c565b93506107b081856020860161093e565b6107b981610971565b840191505092915050565b6107cd816108fe565b82525050565b60006020820190506107e8600083018461075e565b92915050565b6000602082019050610803600083018461076d565b92915050565b600060208201905061081e600083018461077c565b92915050565b6000602082019050818103600083015261083e818461078b565b905092915050565b60006040820190508181036000830152610860818561078b565b905061086f602083018461074f565b9392505050565b600060208201905061088b60008301846107c4565b92915050565b600081519050919050565b600082825260208201905092915050565b60006108b8826108de565b9050919050565b60008115159050919050565b60008190506108d982610982565b919050565b600073ffffffffffffffffffffffffffffffffffffffff82169050919050565b6000819050919050565b60006109138261091a565b9050919050565b6000610925826108de565b9050919050565b6000610937826108cb565b9050919050565b60005b8381101561095c578082015181840152602081019050610941565b8381111561096b576000848401525b50505050565b6000601f19601f8301169050919050565b6005811061098c57fe5b50565b610998816108ad565b81146109a357600080fd5b50565b6109af816108fe565b81146109ba57600080fd5b5056fea365627a7a72315820e0186b62f8549b56c4dd4259295c19973f65a9bc279f4dcc7dd7d454bf36b4a06c6578706572696d656e74616cf564736f6c63430005100040a365627a7a72315820f204475d0f068d185718c3c2a643da4c0b159fed2683ccf2dda3391348afc0b06c6578706572696d656e74616cf564736f6c63430005100040",
  "source": "pragma solidity >=0.4.22 <0.9.0;\r\n\r\npragma experimental ABIEncoderV2;\r\n\r\ncontract Actor {\r\n    string public id;\r\n    string public name;\r\n    string public actorType;\r\n    string public latitude;\r\n    string public longitude;\r\n    address public owner;\r\n\r\n    constructor(\r\n        string memory _id,\r\n        string memory _name,\r\n        string memory _actorType,\r\n        string memory _latitude,\r\n        string memory _longitude\r\n    ) public {\r\n        id = _id;\r\n        name = _name;\r\n        actorType = _actorType;\r\n        latitude = _latitude;\r\n        longitude = _longitude;\r\n        owner = msg.sender;\r\n    }\r\n\r\n    event TransactionCreated(address _address);\r\n\r\n    function createTransaction(\r\n        Transaction.Product[] memory _productsInput,\r\n        Transaction.Product[] memory _productsOutput,\r\n        Actor _buyer,\r\n        string memory _idTransaction,\r\n        Transaction.TransportType _transport\r\n    ) public {\r\n        require(msg.sender == owner, \"Only the actor can create a transaction\");\r\n\r\n        Transaction newTransaction = new Transaction(\r\n                _idTransaction,\r\n                _buyer,\r\n                _transport,\r\n                _productsInput,\r\n                _productsOutput\r\n            );\r\n        emit TransactionCreated(address(newTransaction));//\r\n    }\r\n}\r\n\r\ncontract Transaction {\r\n    enum TransportType {Avion, Train, Bateau, Camion, Charette}\r\n\r\n    struct Product {\r\n        string productId;\r\n        address addressTransaction;\r\n    }\r\n\r\n    struct Products {\r\n        mapping(uint256 => Product) products;\r\n        uint256 size;\r\n    }\r\n\r\n    string public idTransaction;\r\n    Actor public buyer;\r\n    Actor public seller;\r\n    uint256 public date;\r\n    TransportType public transport;\r\n    Product[] public productsInput;\r\n    Product[] public productsOutput;\r\n    bool public isFinished;\r\n    bool public isAccepted;\r\n\r\n    constructor(\r\n        string memory _idTransaction,\r\n        Actor _buyer,\r\n        TransportType _transport,\r\n        Product[] memory _productsInput,\r\n        Product[] memory _productsOutput\r\n    ) public {\r\n        idTransaction = _idTransaction;\r\n        buyer = _buyer;\r\n        date = block.timestamp;\r\n        transport = _transport;\r\n        for (uint256 index = 0; index < _productsInput.length; index++) {\r\n            productsInput.push(_productsOutput[index]);\r\n        }\r\n        for (uint256 index = 0; index < _productsOutput.length; index++) {\r\n            productsOutput.push(_productsOutput[index]);\r\n        }\r\n        isFinished = false;\r\n        isAccepted = false;\r\n    }\r\n\r\n    function acceptTransaction() external {\r\n        if (msg.sender == buyer.owner()) {\r\n            isAccepted = true;\r\n        }\r\n    }\r\n\r\n    function finishTransaction() external {\r\n        if (msg.sender == buyer.owner()) {\r\n            isFinished = true;\r\n        }\r\n    }\r\n}\r\n",
  "sourcePath": "C:/Users/Thibaut/Documents/4A - INSA Lyon/1 - Cours/Semestre 2/7 - PLD SMART/lowympact-blockchain/contracts/Lowympact.sol",
  "compiler": {
    "name": "solc",
    "version": "0.5.16+commit.9c3226ce.Emscripten.clang"
  },
  "schemaVersion": "3.3.3",
  "updatedAt": "2021-04-28T13:55:25.122Z",
  "devdoc": {
    "methods": {}
  },
  "userdoc": {
    "methods": {}
  }
}