{
  "contractName": "HelloWorld",
  "abi": [
    {
      "inputs": [],
      "payable": false,
      "stateMutability": "nonpayable",
      "type": "constructor"
    },
    {
      "constant": true,
      "inputs": [],
      "name": "getMessage",
      "outputs": [
        {
          "internalType": "string",
          "name": "",
          "type": "string"
        }
      ],
      "payable": false,
      "stateMutability": "view",
      "type": "function"
    }
  ],
  "bytecode": "0x608060405234801561001057600080fd5b506040518060400160405280600581526020017f576f726c640000000000000000000000000000000000000000000000000000008152506000908051906020019061005c929190610062565b50610107565b828054600181600116156101000203166002900490600052602060002090601f016020900481019282601f106100a357805160ff19168380011785556100d1565b828001600101855582156100d1579182015b828111156100d05782518255916020019190600101906100b5565b5b5090506100de91906100e2565b5090565b61010491905b808211156101005760008160009055506001016100e8565b5090565b90565b61030c806101166000396000f3fe608060405234801561001057600080fd5b506004361061002b5760003560e01c8063ce6d41de14610030575b600080fd5b6100386100b3565b6040518080602001828103825283818151815260200191508051906020019080838360005b8381101561007857808201518184015260208101905061005d565b50505050905090810190601f1680156100a55780820380516001836020036101000a031916815260200191505b509250505060405180910390f35b606061018e6040518060400160405280600681526020017f48656c6c6f20000000000000000000000000000000000000000000000000000081525060008054600181600116156101000203166002900480601f0160208091040260200160405190810160405280929190818152602001828054600181600116156101000203166002900480156101845780601f1061015957610100808354040283529160200191610184565b820191906000526020600020905b81548152906001019060200180831161016757829003601f168201915b5050505050610193565b905090565b6060808390506060839050606081518351016040519080825280601f01601f1916602001820160405280156101d75781602001600182028038833980820191505090505b5090506060819050600080600091505b8551821015610255578582815181106101fc57fe5b602001015160f81c60f81b83828060010193508151811061021957fe5b60200101907effffffffffffffffffffffffffffffffffffffffffffffffffffffffffffff1916908160001a90535081806001019250506101e7565b600091505b84518210156102c85784828151811061026f57fe5b602001015160f81c60f81b83828060010193508151811061028c57fe5b60200101907effffffffffffffffffffffffffffffffffffffffffffffffffffffffffffff1916908160001a905350818060010192505061025a565b8296505050505050509291505056fea265627a7a7231582087a688adb2e1ac45e97fd87d92903052fef18b253a991066ab44abddc2ae362064736f6c63430005100032",
  "source": "pragma solidity >=0.4.22 <0.9.0;\r\n\r\ncontract HelloWorld {\r\n    string defaultName;\r\n\r\n    constructor() public {\r\n        defaultName = \"World\";\r\n    }\r\n\r\n    function getMessage() public view returns (string memory) {\r\n        return concat(\"Hello \", defaultName);\r\n    }\r\n\r\n    function concat(string memory _base, string memory _value)\r\n        internal\r\n        pure\r\n        returns (string memory)\r\n    {\r\n        bytes memory _baseBytes = bytes(_base);\r\n        bytes memory _valueBytes = bytes(_value);\r\n\r\n        string memory _tmpValue =\r\n            new string(_baseBytes.length + _valueBytes.length);\r\n        bytes memory _newValue = bytes(_tmpValue);\r\n\r\n        uint256 i;\r\n        uint256 j;\r\n\r\n        for (i = 0; i < _baseBytes.length; i++) {\r\n            _newValue[j++] = _baseBytes[i];\r\n        }\r\n\r\n        for (i = 0; i < _valueBytes.length; i++) {\r\n            _newValue[j++] = _valueBytes[i];\r\n        }\r\n\r\n        return string(_newValue);\r\n    }\r\n}\r\n",
  "sourcePath": "C:/Users/Thibaut/Documents/4A - INSA Lyon/1 - Cours/Semestre 2/7 - PLD SMART/lowympact-blockchain/contracts/HelloWorld.sol",
  "compiler": {
    "name": "solc",
    "version": "0.5.16+commit.9c3226ce.Emscripten.clang"
  },
  "schemaVersion": "3.3.3",
  "updatedAt": "2021-04-28T13:21:56.485Z",
  "networkType": "ethereum",
  "devdoc": {
    "methods": {}
  },
  "userdoc": {
    "methods": {}
  }
}