{
  "contractName": "Transaction",
  "abi": [
    {
      "inputs": [
        {
          "internalType": "string",
          "name": "_idTransaction",
          "type": "string"
        },
        {
          "internalType": "contract Actor",
          "name": "_buyer",
          "type": "address"
        },
        {
          "internalType": "contract Actor",
          "name": "_seller",
          "type": "address"
        },
        {
          "internalType": "enum Transaction.TransportType",
          "name": "_transport",
          "type": "uint8"
        },
        {
          "components": [
            {
              "internalType": "string",
              "name": "productId",
              "type": "string"
            },
            {
              "internalType": "address",
              "name": "addressTransaction",
              "type": "address"
            }
          ],
          "internalType": "struct Transaction.Product[]",
          "name": "_productsInput",
          "type": "tuple[]"
        },
        {
          "components": [
            {
              "internalType": "string",
              "name": "productId",
              "type": "string"
            },
            {
              "internalType": "address",
              "name": "addressTransaction",
              "type": "address"
            }
          ],
          "internalType": "struct Transaction.Product[]",
          "name": "_productsOutput",
          "type": "tuple[]"
        }
      ],
      "payable": false,
      "stateMutability": "nonpayable",
      "type": "constructor"
    },
    {
      "constant": true,
      "inputs": [],
      "name": "buyer",
      "outputs": [
        {
          "internalType": "contract Actor",
          "name": "",
          "type": "address"
        }
      ],
      "payable": false,
      "stateMutability": "view",
      "type": "function"
    },
    {
      "constant": true,
      "inputs": [],
      "name": "date",
      "outputs": [
        {
          "internalType": "uint256",
          "name": "",
          "type": "uint256"
        }
      ],
      "payable": false,
      "stateMutability": "view",
      "type": "function"
    },
    {
      "constant": true,
      "inputs": [],
      "name": "idTransaction",
      "outputs": [
        {
          "internalType": "string",
          "name": "",
          "type": "string"
        }
      ],
      "payable": false,
      "stateMutability": "view",
      "type": "function"
    },
    {
      "constant": true,
      "inputs": [],
      "name": "isAccepted",
      "outputs": [
        {
          "internalType": "bool",
          "name": "",
          "type": "bool"
        }
      ],
      "payable": false,
      "stateMutability": "view",
      "type": "function"
    },
    {
      "constant": true,
      "inputs": [],
      "name": "isFinished",
      "outputs": [
        {
          "internalType": "bool",
          "name": "",
          "type": "bool"
        }
      ],
      "payable": false,
      "stateMutability": "view",
      "type": "function"
    },
    {
      "constant": true,
      "inputs": [
        {
          "internalType": "uint256",
          "name": "",
          "type": "uint256"
        }
      ],
      "name": "productsInput",
      "outputs": [
        {
          "internalType": "string",
          "name": "productId",
          "type": "string"
        },
        {
          "internalType": "address",
          "name": "addressTransaction",
          "type": "address"
        }
      ],
      "payable": false,
      "stateMutability": "view",
      "type": "function"
    },
    {
      "constant": true,
      "inputs": [
        {
          "internalType": "uint256",
          "name": "",
          "type": "uint256"
        }
      ],
      "name": "productsOutput",
      "outputs": [
        {
          "internalType": "string",
          "name": "productId",
          "type": "string"
        },
        {
          "internalType": "address",
          "name": "addressTransaction",
          "type": "address"
        }
      ],
      "payable": false,
      "stateMutability": "view",
      "type": "function"
    },
    {
      "constant": true,
      "inputs": [],
      "name": "seller",
      "outputs": [
        {
          "internalType": "contract Actor",
          "name": "",
          "type": "address"
        }
      ],
      "payable": false,
      "stateMutability": "view",
      "type": "function"
    },
    {
      "constant": true,
      "inputs": [],
      "name": "transport",
      "outputs": [
        {
          "internalType": "enum Transaction.TransportType",
          "name": "",
          "type": "uint8"
        }
      ],
      "payable": false,
      "stateMutability": "view",
      "type": "function"
    },
    {
      "constant": false,
      "inputs": [],
      "name": "acceptTransaction",
      "outputs": [],
      "payable": false,
      "stateMutability": "nonpayable",
      "type": "function"
    },
    {
      "constant": false,
      "inputs": [],
      "name": "finishTransaction",
      "outputs": [],
      "payable": false,
      "stateMutability": "nonpayable",
      "type": "function"
    },
    {
      "constant": true,
      "inputs": [],
      "name": "getProductsInput",
      "outputs": [
        {
          "components": [
            {
              "internalType": "string",
              "name": "productId",
              "type": "string"
            },
            {
              "internalType": "address",
              "name": "addressTransaction",
              "type": "address"
            }
          ],
          "internalType": "struct Transaction.Product[]",
          "name": "",
          "type": "tuple[]"
        }
      ],
      "payable": false,
      "stateMutability": "view",
      "type": "function"
    },
    {
      "constant": true,
      "inputs": [],
      "name": "getProductsOutput",
      "outputs": [
        {
          "components": [
            {
              "internalType": "string",
              "name": "productId",
              "type": "string"
            },
            {
              "internalType": "address",
              "name": "addressTransaction",
              "type": "address"
            }
          ],
          "internalType": "struct Transaction.Product[]",
          "name": "",
          "type": "tuple[]"
        }
      ],
      "payable": false,
      "stateMutability": "view",
      "type": "function"
    }
  ],
  "bytecode": "0x60806040523480156200001157600080fd5b50604051620016de380380620016de8339818101604052620000379190810190620005ef565b85600090805190602001906200004f929190620002d3565b5083600260006101000a81548173ffffffffffffffffffffffffffffffffffffffff021916908373ffffffffffffffffffffffffffffffffffffffff16021790555084600160006101000a81548173ffffffffffffffffffffffffffffffffffffffff021916908373ffffffffffffffffffffffffffffffffffffffff1602179055504260038190555082600460006101000a81548160ff02191690836004811115620000f857fe5b021790555060008090505b8251811015620001c65760058382815181106200011c57fe5b60200260200101519080600181540180825580915050906001820390600052602060002090600202016000909192909190915060008201518160000190805190602001906200016d9291906200035a565b5060208201518160010160006101000a81548173ffffffffffffffffffffffffffffffffffffffff021916908373ffffffffffffffffffffffffffffffffffffffff160217905550505050808060010191505062000103565b5060008090505b815181101562000290576006828281518110620001e657fe5b6020026020010151908060018154018082558091505090600182039060005260206000209060020201600090919290919091506000820151816000019080519060200190620002379291906200035a565b5060208201518160010160006101000a81548173ffffffffffffffffffffffffffffffffffffffff021916908373ffffffffffffffffffffffffffffffffffffffff1602179055505050508080600101915050620001cd565b506000600760006101000a81548160ff0219169083151502179055506000600760016101000a81548160ff02191690831515021790555050505050505062000844565b828054600181600116156101000203166002900490600052602060002090601f016020900481019282601f106200031657805160ff191683800117855562000347565b8280016001018555821562000347579182015b828111156200034657825182559160200191906001019062000329565b5b509050620003569190620003e1565b5090565b828054600181600116156101000203166002900490600052602060002090601f016020900481019282601f106200039d57805160ff1916838001178555620003ce565b82800160010185558215620003ce579182015b82811115620003cd578251825591602001919060010190620003b0565b5b509050620003dd9190620003e1565b5090565b6200040691905b8082111562000402576000816000905550600101620003e8565b5090565b90565b6000815190506200041a81620007ff565b92915050565b600082601f8301126200043257600080fd5b8151620004496200044382620006fe565b620006d0565b9150818183526020840193506020810190508360005b8381101562000493578151860162000478888262000583565b8452602084019350602083019250506001810190506200045f565b5050505092915050565b600081519050620004ae8162000819565b92915050565b600081519050620004c58162000833565b92915050565b600082601f830112620004dd57600080fd5b8151620004f4620004ee8262000727565b620006d0565b915080825260208301602083018583830111156200051157600080fd5b6200051e838284620007c9565b50505092915050565b600082601f8301126200053957600080fd5b8151620005506200054a8262000754565b620006d0565b915080825260208301602083018583830111156200056d57600080fd5b6200057a838284620007c9565b50505092915050565b6000604082840312156200059657600080fd5b620005a26040620006d0565b9050600082015167ffffffffffffffff811115620005bf57600080fd5b620005cd84828501620004cb565b6000830152506020620005e38482850162000409565b60208301525092915050565b60008060008060008060c087890312156200060957600080fd5b600087015167ffffffffffffffff8111156200062457600080fd5b6200063289828a0162000527565b96505060206200064589828a016200049d565b95505060406200065889828a016200049d565b94505060606200066b89828a01620004b4565b935050608087015167ffffffffffffffff8111156200068957600080fd5b6200069789828a0162000420565b92505060a087015167ffffffffffffffff811115620006b557600080fd5b620006c389828a0162000420565b9150509295509295509295565b6000604051905081810181811067ffffffffffffffff82111715620006f457600080fd5b8060405250919050565b600067ffffffffffffffff8211156200071657600080fd5b602082029050602081019050919050565b600067ffffffffffffffff8211156200073f57600080fd5b601f19601f8301169050602081019050919050565b600067ffffffffffffffff8211156200076c57600080fd5b601f19601f8301169050602081019050919050565b60006200078e82620007a9565b9050919050565b6000620007a28262000781565b9050919050565b600073ffffffffffffffffffffffffffffffffffffffff82169050919050565b60005b83811015620007e9578082015181840152602081019050620007cc565b83811115620007f9576000848401525b50505050565b6200080a8162000781565b81146200081657600080fd5b50565b620008248162000795565b81146200083057600080fd5b50565b600581106200084157600080fd5b50565b610e8a80620008546000396000f3fe608060405234801561001057600080fd5b50600436106100cf5760003560e01c80635817bcd71161008c5780637b352962116100665780637b352962146101f45780639923c65814610212578063b90be96614610230578063f6b6e4f31461024e576100cf565b80635817bcd71461018757806365107616146101a55780637150d8ae146101d6576100cf565b806302afc23f146100d457806308551a53146100de5780632cf87b13146100fc578063323046b11461011a5780635051a5ec1461013857806355c720aa14610156575b600080fd5b6100dc610258565b005b6100e6610349565b6040516100f39190610c2e565b60405180910390f35b61010461036f565b6040516101119190610c49565b60405180910390f35b610122610382565b60405161012f9190610cb6565b60405180910390f35b610140610388565b60405161014d9190610c13565b60405180910390f35b610170600480360361016b9190810190610a36565b61039b565b60405161017e929190610c86565b60405180910390f35b61018f610484565b60405161019c9190610bf1565b60405180910390f35b6101bf60048036036101ba9190810190610a36565b6105db565b6040516101cd929190610c86565b60405180910390f35b6101de6106c4565b6040516101eb9190610c2e565b60405180910390f35b6101fc6106ea565b6040516102099190610c13565b60405180910390f35b61021a6106fd565b6040516102279190610bf1565b60405180910390f35b610238610854565b6040516102459190610c64565b60405180910390f35b6102566108f2565b005b600160009054906101000a900473ffffffffffffffffffffffffffffffffffffffff1673ffffffffffffffffffffffffffffffffffffffff16638da5cb5b6040518163ffffffff1660e01b815260040160206040518083038186803b1580156102c057600080fd5b505afa1580156102d4573d6000803e3d6000fd5b505050506040513d601f19601f820116820180604052506102f89190810190610a0d565b73ffffffffffffffffffffffffffffffffffffffff163373ffffffffffffffffffffffffffffffffffffffff161415610347576001600760006101000a81548160ff0219169083151502179055505b565b600260009054906101000a900473ffffffffffffffffffffffffffffffffffffffff1681565b600460009054906101000a900460ff1681565b60035481565b600760019054906101000a900460ff1681565b600681815481106103a857fe5b9060005260206000209060020201600091509050806000018054600181600116156101000203166002900480601f0160208091040260200160405190810160405280929190818152602001828054600181600116156101000203166002900480156104545780601f1061042957610100808354040283529160200191610454565b820191906000526020600020905b81548152906001019060200180831161043757829003601f168201915b5050505050908060010160009054906101000a900473ffffffffffffffffffffffffffffffffffffffff16905082565b60606006805480602002602001604051908101604052809291908181526020016000905b828210156105d25783829060005260206000209060020201604051806040016040529081600082018054600181600116156101000203166002900480601f0160208091040260200160405190810160405280929190818152602001828054600181600116156101000203166002900480156105645780601f1061053957610100808354040283529160200191610564565b820191906000526020600020905b81548152906001019060200180831161054757829003601f168201915b505050505081526020016001820160009054906101000a900473ffffffffffffffffffffffffffffffffffffffff1673ffffffffffffffffffffffffffffffffffffffff1673ffffffffffffffffffffffffffffffffffffffff1681525050815260200190600101906104a8565b50505050905090565b600581815481106105e857fe5b9060005260206000209060020201600091509050806000018054600181600116156101000203166002900480601f0160208091040260200160405190810160405280929190818152602001828054600181600116156101000203166002900480156106945780601f1061066957610100808354040283529160200191610694565b820191906000526020600020905b81548152906001019060200180831161067757829003601f168201915b5050505050908060010160009054906101000a900473ffffffffffffffffffffffffffffffffffffffff16905082565b600160009054906101000a900473ffffffffffffffffffffffffffffffffffffffff1681565b600760009054906101000a900460ff1681565b60606005805480602002602001604051908101604052809291908181526020016000905b8282101561084b5783829060005260206000209060020201604051806040016040529081600082018054600181600116156101000203166002900480601f0160208091040260200160405190810160405280929190818152602001828054600181600116156101000203166002900480156107dd5780601f106107b2576101008083540402835291602001916107dd565b820191906000526020600020905b8154815290600101906020018083116107c057829003601f168201915b505050505081526020016001820160009054906101000a900473ffffffffffffffffffffffffffffffffffffffff1673ffffffffffffffffffffffffffffffffffffffff1673ffffffffffffffffffffffffffffffffffffffff168152505081526020019060010190610721565b50505050905090565b60008054600181600116156101000203166002900480601f0160208091040260200160405190810160405280929190818152602001828054600181600116156101000203166002900480156108ea5780601f106108bf576101008083540402835291602001916108ea565b820191906000526020600020905b8154815290600101906020018083116108cd57829003601f168201915b505050505081565b600160009054906101000a900473ffffffffffffffffffffffffffffffffffffffff1673ffffffffffffffffffffffffffffffffffffffff16638da5cb5b6040518163ffffffff1660e01b815260040160206040518083038186803b15801561095a57600080fd5b505afa15801561096e573d6000803e3d6000fd5b505050506040513d601f19601f820116820180604052506109929190810190610a0d565b73ffffffffffffffffffffffffffffffffffffffff163373ffffffffffffffffffffffffffffffffffffffff1614156109e1576001600760016101000a81548160ff0219169083151502179055505b565b6000815190506109f281610e19565b92915050565b600081359050610a0781610e30565b92915050565b600060208284031215610a1f57600080fd5b6000610a2d848285016109e3565b91505092915050565b600060208284031215610a4857600080fd5b6000610a56848285016109f8565b91505092915050565b6000610a6b8383610ba5565b905092915050565b610a7c81610d37565b82525050565b610a8b81610d37565b82525050565b6000610a9c82610ce1565b610aa68185610d04565b935083602082028501610ab885610cd1565b8060005b85811015610af45784840389528151610ad58582610a5f565b9450610ae083610cf7565b925060208a01995050600181019050610abc565b50829750879550505050505092915050565b610b0f81610d49565b82525050565b610b1e81610d92565b82525050565b610b2d81610db6565b82525050565b6000610b3e82610cec565b610b488185610d15565b9350610b58818560208601610dc8565b610b6181610dfb565b840191505092915050565b6000610b7782610cec565b610b818185610d26565b9350610b91818560208601610dc8565b610b9a81610dfb565b840191505092915050565b60006040830160008301518482036000860152610bc28282610b33565b9150506020830151610bd76020860182610a73565b508091505092915050565b610beb81610d88565b82525050565b60006020820190508181036000830152610c0b8184610a91565b905092915050565b6000602082019050610c286000830184610b06565b92915050565b6000602082019050610c436000830184610b15565b92915050565b6000602082019050610c5e6000830184610b24565b92915050565b60006020820190508181036000830152610c7e8184610b6c565b905092915050565b60006040820190508181036000830152610ca08185610b6c565b9050610caf6020830184610a82565b9392505050565b6000602082019050610ccb6000830184610be2565b92915050565b6000819050602082019050919050565b600081519050919050565b600081519050919050565b6000602082019050919050565b600082825260208201905092915050565b600082825260208201905092915050565b600082825260208201905092915050565b6000610d4282610d68565b9050919050565b60008115159050919050565b6000819050610d6382610e0c565b919050565b600073ffffffffffffffffffffffffffffffffffffffff82169050919050565b6000819050919050565b6000610d9d82610da4565b9050919050565b6000610daf82610d68565b9050919050565b6000610dc182610d55565b9050919050565b60005b83811015610de6578082015181840152602081019050610dcb565b83811115610df5576000848401525b50505050565b6000601f19601f8301169050919050565b60058110610e1657fe5b50565b610e2281610d37565b8114610e2d57600080fd5b50565b610e3981610d88565b8114610e4457600080fd5b5056fea365627a7a72315820db477a250388fe71e790878a61e9588812487ff1d13a5a808e22700823d3aae16c6578706572696d656e74616cf564736f6c63430005100040",
  "source": "pragma solidity >=0.4.22 <0.9.0;\r\n\r\npragma experimental ABIEncoderV2;\r\n\r\ncontract Actor {\r\n    string public id;\r\n    string public name;\r\n    string public actorType;\r\n    string public latitude;\r\n    string public longitude;\r\n    address public owner;\r\n\r\n    constructor(\r\n        string memory _id,\r\n        string memory _name,\r\n        string memory _actorType,\r\n        string memory _latitude,\r\n        string memory _longitude\r\n    ) public {\r\n        id = _id;\r\n        name = _name;\r\n        actorType = _actorType;\r\n        latitude = _latitude;\r\n        longitude = _longitude;\r\n        owner = msg.sender;\r\n    }\r\n\r\n    event TransactionCreated(address _address);\r\n\r\n    function createTransaction(\r\n        Transaction.Product[] memory _productsInput,\r\n        Transaction.Product[] memory _productsOutput,\r\n        Actor _buyer,\r\n        string memory _idTransaction,\r\n        Transaction.TransportType _transport\r\n    ) public {\r\n        require(msg.sender == owner, \"Only the actor can create a transaction\");\r\n\r\n        Transaction newTransaction = new Transaction(\r\n                _idTransaction,\r\n                _buyer,\r\n                this,\r\n                _transport,\r\n                _productsInput,\r\n                _productsOutput\r\n            );\r\n        emit TransactionCreated(address(newTransaction));\r\n    }\r\n}\r\n\r\ncontract Transaction {\r\n    enum TransportType {Avion, Train, Bateau, Camion, Charette}\r\n\r\n    struct Product {\r\n        string productId;\r\n        address addressTransaction;\r\n    }\r\n\r\n    struct Products {\r\n        mapping(uint256 => Product) products;\r\n        uint256 size;\r\n    }\r\n\r\n    string public idTransaction;\r\n    Actor public buyer;\r\n    Actor public seller;\r\n    uint256 public date;\r\n    TransportType public transport;\r\n    Product[] public productsInput;\r\n    Product[] public productsOutput;\r\n    bool public isFinished;\r\n    bool public isAccepted;\r\n\r\n    constructor(\r\n        string memory _idTransaction,\r\n        Actor _buyer,\r\n        Actor _seller,\r\n        TransportType _transport,\r\n        Product[] memory _productsInput,\r\n        Product[] memory _productsOutput\r\n    ) public {\r\n        idTransaction = _idTransaction;\r\n        seller = _seller;\r\n        buyer = _buyer;\r\n        date = block.timestamp;\r\n        transport = _transport;\r\n        for (uint256 index = 0; index < _productsInput.length; index++) {\r\n            productsInput.push(_productsInput[index]);\r\n        }\r\n        for (uint256 index = 0; index < _productsOutput.length; index++) {\r\n            productsOutput.push(_productsOutput[index]);\r\n        }\r\n        isFinished = false;\r\n        isAccepted = false;\r\n    }\r\n\r\n    function acceptTransaction() external {\r\n        if (msg.sender == buyer.owner()) {\r\n            isAccepted = true;\r\n        }\r\n    }\r\n\r\n    function finishTransaction() external {\r\n        if (msg.sender == buyer.owner()) {\r\n            isFinished = true;\r\n        }\r\n    }\r\n\r\n    function getProductsInput() external view returns (Product[] memory) {\r\n        return productsInput;\r\n    }\r\n\r\n    function getProductsOutput() external view returns (Product[] memory) {\r\n        return productsOutput;\r\n    }\r\n}\r\n",
  "sourcePath": "C:/Users/Thibaut/Documents/4A - INSA Lyon/1 - Cours/Semestre 2/7 - PLD SMART/lowympact-blockchain/contracts/Lowympact.sol",
  "compiler": {
    "name": "solc",
    "version": "0.5.16+commit.9c3226ce.Emscripten.clang"
  },
  "schemaVersion": "3.3.3",
  "updatedAt": "2021-04-28T15:54:26.486Z",
  "devdoc": {
    "methods": {}
  },
  "userdoc": {
    "methods": {}
  }
}