{
  "contractName": "Transaction",
  "abi": [
    {
      "inputs": [
        {
          "internalType": "string",
          "name": "_idTransaction",
          "type": "string"
        },
        {
          "internalType": "contract Actor",
          "name": "_buyer",
          "type": "address"
        },
        {
          "internalType": "contract Actor",
          "name": "_seller",
          "type": "address"
        },
        {
          "internalType": "enum Transaction.TransportType",
          "name": "_transport",
          "type": "uint8"
        },
        {
          "components": [
            {
              "internalType": "string",
              "name": "productId",
              "type": "string"
            },
            {
              "internalType": "address",
              "name": "addressTransaction",
              "type": "address"
            }
          ],
          "internalType": "struct Transaction.Product[]",
          "name": "_productsInput",
          "type": "tuple[]"
        },
        {
          "components": [
            {
              "internalType": "string",
              "name": "productId",
              "type": "string"
            },
            {
              "internalType": "address",
              "name": "addressTransaction",
              "type": "address"
            }
          ],
          "internalType": "struct Transaction.Product[]",
          "name": "_productsOutput",
          "type": "tuple[]"
        }
      ],
      "payable": false,
      "stateMutability": "nonpayable",
      "type": "constructor"
    },
    {
      "constant": true,
      "inputs": [],
      "name": "buyer",
      "outputs": [
        {
          "internalType": "contract Actor",
          "name": "",
          "type": "address"
        }
      ],
      "payable": false,
      "stateMutability": "view",
      "type": "function"
    },
    {
      "constant": true,
      "inputs": [],
      "name": "date",
      "outputs": [
        {
          "internalType": "uint256",
          "name": "",
          "type": "uint256"
        }
      ],
      "payable": false,
      "stateMutability": "view",
      "type": "function"
    },
    {
      "constant": true,
      "inputs": [],
      "name": "idTransaction",
      "outputs": [
        {
          "internalType": "string",
          "name": "",
          "type": "string"
        }
      ],
      "payable": false,
      "stateMutability": "view",
      "type": "function"
    },
    {
      "constant": true,
      "inputs": [],
      "name": "isAccepted",
      "outputs": [
        {
          "internalType": "bool",
          "name": "",
          "type": "bool"
        }
      ],
      "payable": false,
      "stateMutability": "view",
      "type": "function"
    },
    {
      "constant": true,
      "inputs": [],
      "name": "isFinished",
      "outputs": [
        {
          "internalType": "bool",
          "name": "",
          "type": "bool"
        }
      ],
      "payable": false,
      "stateMutability": "view",
      "type": "function"
    },
    {
      "constant": true,
      "inputs": [
        {
          "internalType": "uint256",
          "name": "",
          "type": "uint256"
        }
      ],
      "name": "productsInput",
      "outputs": [
        {
          "internalType": "string",
          "name": "productId",
          "type": "string"
        },
        {
          "internalType": "address",
          "name": "addressTransaction",
          "type": "address"
        }
      ],
      "payable": false,
      "stateMutability": "view",
      "type": "function"
    },
    {
      "constant": true,
      "inputs": [
        {
          "internalType": "uint256",
          "name": "",
          "type": "uint256"
        }
      ],
      "name": "productsOutput",
      "outputs": [
        {
          "internalType": "string",
          "name": "productId",
          "type": "string"
        },
        {
          "internalType": "address",
          "name": "addressTransaction",
          "type": "address"
        }
      ],
      "payable": false,
      "stateMutability": "view",
      "type": "function"
    },
    {
      "constant": true,
      "inputs": [],
      "name": "seller",
      "outputs": [
        {
          "internalType": "contract Actor",
          "name": "",
          "type": "address"
        }
      ],
      "payable": false,
      "stateMutability": "view",
      "type": "function"
    },
    {
      "constant": true,
      "inputs": [],
      "name": "transport",
      "outputs": [
        {
          "internalType": "enum Transaction.TransportType",
          "name": "",
          "type": "uint8"
        }
      ],
      "payable": false,
      "stateMutability": "view",
      "type": "function"
    },
    {
      "constant": false,
      "inputs": [],
      "name": "acceptTransaction",
      "outputs": [],
      "payable": false,
      "stateMutability": "nonpayable",
      "type": "function"
    },
    {
      "constant": false,
      "inputs": [],
      "name": "finishTransaction",
      "outputs": [],
      "payable": false,
      "stateMutability": "nonpayable",
      "type": "function"
    },
    {
      "constant": true,
      "inputs": [],
      "name": "getProductsInput",
      "outputs": [
        {
          "components": [
            {
              "internalType": "string",
              "name": "productId",
              "type": "string"
            },
            {
              "internalType": "address",
              "name": "addressTransaction",
              "type": "address"
            }
          ],
          "internalType": "struct Transaction.Product[]",
          "name": "",
          "type": "tuple[]"
        }
      ],
      "payable": false,
      "stateMutability": "view",
      "type": "function"
    },
    {
      "constant": true,
      "inputs": [],
      "name": "getProductsOutput",
      "outputs": [
        {
          "components": [
            {
              "internalType": "string",
              "name": "productId",
              "type": "string"
            },
            {
              "internalType": "address",
              "name": "addressTransaction",
              "type": "address"
            }
          ],
          "internalType": "struct Transaction.Product[]",
          "name": "",
          "type": "tuple[]"
        }
      ],
      "payable": false,
      "stateMutability": "view",
      "type": "function"
    },
    {
      "constant": true,
      "inputs": [],
      "name": "getTransactionInformations",
      "outputs": [
        {
          "internalType": "string",
          "name": "_id",
          "type": "string"
        },
        {
          "internalType": "address",
          "name": "_buyerAddress",
          "type": "address"
        },
        {
          "internalType": "address",
          "name": "_sellerAddress",
          "type": "address"
        },
        {
          "components": [
            {
              "internalType": "string",
              "name": "productId",
              "type": "string"
            },
            {
              "internalType": "address",
              "name": "addressTransaction",
              "type": "address"
            }
          ],
          "internalType": "struct Transaction.Product[]",
          "name": "_productsInput",
          "type": "tuple[]"
        },
        {
          "components": [
            {
              "internalType": "string",
              "name": "productId",
              "type": "string"
            },
            {
              "internalType": "address",
              "name": "addressTransaction",
              "type": "address"
            }
          ],
          "internalType": "struct Transaction.Product[]",
          "name": "_productsOutput",
          "type": "tuple[]"
        },
        {
          "internalType": "enum Transaction.TransportType",
          "name": "_transport",
          "type": "uint8"
        },
        {
          "internalType": "uint256",
          "name": "_date",
          "type": "uint256"
        },
        {
          "internalType": "bool",
          "name": "_isFinished",
          "type": "bool"
        },
        {
          "internalType": "bool",
          "name": "_isAccepted",
          "type": "bool"
        }
      ],
      "payable": false,
      "stateMutability": "view",
      "type": "function"
    }
  ],
  "bytecode": "0x60806040523480156200001157600080fd5b5060405162001c4738038062001c478339818101604052620000379190810190620005ef565b85600090805190602001906200004f929190620002d3565b5083600260006101000a81548173ffffffffffffffffffffffffffffffffffffffff021916908373ffffffffffffffffffffffffffffffffffffffff16021790555084600160006101000a81548173ffffffffffffffffffffffffffffffffffffffff021916908373ffffffffffffffffffffffffffffffffffffffff1602179055504260038190555082600460006101000a81548160ff02191690836004811115620000f857fe5b021790555060008090505b8251811015620001c65760058382815181106200011c57fe5b60200260200101519080600181540180825580915050906001820390600052602060002090600202016000909192909190915060008201518160000190805190602001906200016d9291906200035a565b5060208201518160010160006101000a81548173ffffffffffffffffffffffffffffffffffffffff021916908373ffffffffffffffffffffffffffffffffffffffff160217905550505050808060010191505062000103565b5060008090505b815181101562000290576006828281518110620001e657fe5b6020026020010151908060018154018082558091505090600182039060005260206000209060020201600090919290919091506000820151816000019080519060200190620002379291906200035a565b5060208201518160010160006101000a81548173ffffffffffffffffffffffffffffffffffffffff021916908373ffffffffffffffffffffffffffffffffffffffff1602179055505050508080600101915050620001cd565b506000600760006101000a81548160ff0219169083151502179055506000600760016101000a81548160ff02191690831515021790555050505050505062000844565b828054600181600116156101000203166002900490600052602060002090601f016020900481019282601f106200031657805160ff191683800117855562000347565b8280016001018555821562000347579182015b828111156200034657825182559160200191906001019062000329565b5b509050620003569190620003e1565b5090565b828054600181600116156101000203166002900490600052602060002090601f016020900481019282601f106200039d57805160ff1916838001178555620003ce565b82800160010185558215620003ce579182015b82811115620003cd578251825591602001919060010190620003b0565b5b509050620003dd9190620003e1565b5090565b6200040691905b8082111562000402576000816000905550600101620003e8565b5090565b90565b6000815190506200041a81620007ff565b92915050565b600082601f8301126200043257600080fd5b8151620004496200044382620006fe565b620006d0565b9150818183526020840193506020810190508360005b8381101562000493578151860162000478888262000583565b8452602084019350602083019250506001810190506200045f565b5050505092915050565b600081519050620004ae8162000819565b92915050565b600081519050620004c58162000833565b92915050565b600082601f830112620004dd57600080fd5b8151620004f4620004ee8262000727565b620006d0565b915080825260208301602083018583830111156200051157600080fd5b6200051e838284620007c9565b50505092915050565b600082601f8301126200053957600080fd5b8151620005506200054a8262000754565b620006d0565b915080825260208301602083018583830111156200056d57600080fd5b6200057a838284620007c9565b50505092915050565b6000604082840312156200059657600080fd5b620005a26040620006d0565b9050600082015167ffffffffffffffff811115620005bf57600080fd5b620005cd84828501620004cb565b6000830152506020620005e38482850162000409565b60208301525092915050565b60008060008060008060c087890312156200060957600080fd5b600087015167ffffffffffffffff8111156200062457600080fd5b6200063289828a0162000527565b96505060206200064589828a016200049d565b95505060406200065889828a016200049d565b94505060606200066b89828a01620004b4565b935050608087015167ffffffffffffffff8111156200068957600080fd5b6200069789828a0162000420565b92505060a087015167ffffffffffffffff811115620006b557600080fd5b620006c389828a0162000420565b9150509295509295509295565b6000604051905081810181811067ffffffffffffffff82111715620006f457600080fd5b8060405250919050565b600067ffffffffffffffff8211156200071657600080fd5b602082029050602081019050919050565b600067ffffffffffffffff8211156200073f57600080fd5b601f19601f8301169050602081019050919050565b600067ffffffffffffffff8211156200076c57600080fd5b601f19601f8301169050602081019050919050565b60006200078e82620007a9565b9050919050565b6000620007a28262000781565b9050919050565b600073ffffffffffffffffffffffffffffffffffffffff82169050919050565b60005b83811015620007e9578082015181840152602081019050620007cc565b83811115620007f9576000848401525b50505050565b6200080a8162000781565b81146200081657600080fd5b50565b620008248162000795565b81146200083057600080fd5b50565b600581106200084157600080fd5b50565b6113f380620008546000396000f3fe608060405234801561001057600080fd5b50600436106100ea5760003560e01c8063651076161161008c5780637db34768116100665780637db347681461022d5780639923c65814610253578063b90be96614610271578063f6b6e4f31461028f576100ea565b806365107616146101c05780637150d8ae146101f15780637b3529621461020f576100ea565b8063323046b1116100c8578063323046b1146101355780635051a5ec1461015357806355c720aa146101715780635817bcd7146101a2576100ea565b806302afc23f146100ef57806308551a53146100f95780632cf87b1314610117575b600080fd5b6100f7610299565b005b6101016103bb565b60405161010e91906110ea565b60405180910390f35b61011f6103e1565b60405161012c9190611105565b60405180910390f35b61013d6103f4565b60405161014a9190611214565b60405180910390f35b61015b6103fa565b60405161016891906110cf565b60405180910390f35b61018b60048036036101869190810190610eb9565b61040d565b6040516101999291906111e4565b60405180910390f35b6101aa6104f6565b6040516101b791906110ad565b60405180910390f35b6101da60048036036101d59190810190610eb9565b61064d565b6040516101e89291906111e4565b60405180910390f35b6101f9610736565b60405161020691906110ea565b60405180910390f35b61021761075c565b60405161022491906110cf565b60405180910390f35b61023561076f565b60405161024a99989796959493929190611142565b60405180910390f35b61025b610b4e565b60405161026891906110ad565b60405180910390f35b610279610ca5565b6040516102869190611120565b60405180910390f35b610297610d43565b005b600160009054906101000a900473ffffffffffffffffffffffffffffffffffffffff1673ffffffffffffffffffffffffffffffffffffffff16638da5cb5b6040518163ffffffff1660e01b815260040160206040518083038186803b15801561030157600080fd5b505afa158015610315573d6000803e3d6000fd5b505050506040513d601f19601f820116820180604052506103399190810190610e90565b73ffffffffffffffffffffffffffffffffffffffff163373ffffffffffffffffffffffffffffffffffffffff1614801561037f5750600760019054906101000a900460ff165b80156103985750600760009054906101000a900460ff16155b156103b9576001600760006101000a81548160ff0219169083151502179055505b565b600260009054906101000a900473ffffffffffffffffffffffffffffffffffffffff1681565b600460009054906101000a900460ff1681565b60035481565b600760019054906101000a900460ff1681565b6006818154811061041a57fe5b9060005260206000209060020201600091509050806000018054600181600116156101000203166002900480601f0160208091040260200160405190810160405280929190818152602001828054600181600116156101000203166002900480156104c65780601f1061049b576101008083540402835291602001916104c6565b820191906000526020600020905b8154815290600101906020018083116104a957829003601f168201915b5050505050908060010160009054906101000a900473ffffffffffffffffffffffffffffffffffffffff16905082565b60606006805480602002602001604051908101604052809291908181526020016000905b828210156106445783829060005260206000209060020201604051806040016040529081600082018054600181600116156101000203166002900480601f0160208091040260200160405190810160405280929190818152602001828054600181600116156101000203166002900480156105d65780601f106105ab576101008083540402835291602001916105d6565b820191906000526020600020905b8154815290600101906020018083116105b957829003601f168201915b505050505081526020016001820160009054906101000a900473ffffffffffffffffffffffffffffffffffffffff1673ffffffffffffffffffffffffffffffffffffffff1673ffffffffffffffffffffffffffffffffffffffff16815250508152602001906001019061051a565b50505050905090565b6005818154811061065a57fe5b9060005260206000209060020201600091509050806000018054600181600116156101000203166002900480601f0160208091040260200160405190810160405280929190818152602001828054600181600116156101000203166002900480156107065780601f106106db57610100808354040283529160200191610706565b820191906000526020600020905b8154815290600101906020018083116106e957829003601f168201915b5050505050908060010160009054906101000a900473ffffffffffffffffffffffffffffffffffffffff16905082565b600160009054906101000a900473ffffffffffffffffffffffffffffffffffffffff1681565b600760009054906101000a900460ff1681565b606060008060608060008060008060008054600181600116156101000203166002900480601f0160208091040260200160405190810160405280929190818152602001828054600181600116156101000203166002900480156108135780601f106107e857610100808354040283529160200191610813565b820191906000526020600020905b8154815290600101906020018083116107f657829003601f168201915b50505050509850600160009054906101000a900473ffffffffffffffffffffffffffffffffffffffff169750600260009054906101000a900473ffffffffffffffffffffffffffffffffffffffff1696506005805480602002602001604051908101604052809291908181526020016000905b828210156109b05783829060005260206000209060020201604051806040016040529081600082018054600181600116156101000203166002900480601f0160208091040260200160405190810160405280929190818152602001828054600181600116156101000203166002900480156109425780601f1061091757610100808354040283529160200191610942565b820191906000526020600020905b81548152906001019060200180831161092557829003601f168201915b505050505081526020016001820160009054906101000a900473ffffffffffffffffffffffffffffffffffffffff1673ffffffffffffffffffffffffffffffffffffffff1673ffffffffffffffffffffffffffffffffffffffff168152505081526020019060010190610886565b5050505095506006805480602002602001604051908101604052809291908181526020016000905b82821015610b025783829060005260206000209060020201604051806040016040529081600082018054600181600116156101000203166002900480601f016020809104026020016040519081016040528092919081815260200182805460018160011615610100020316600290048015610a945780601f10610a6957610100808354040283529160200191610a94565b820191906000526020600020905b815481529060010190602001808311610a7757829003601f168201915b505050505081526020016001820160009054906101000a900473ffffffffffffffffffffffffffffffffffffffff1673ffffffffffffffffffffffffffffffffffffffff1673ffffffffffffffffffffffffffffffffffffffff1681525050815260200190600101906109d8565b505050509450600460009054906101000a900460ff1693506003549250600760009054906101000a900460ff169150600760019054906101000a900460ff169050909192939495969798565b60606005805480602002602001604051908101604052809291908181526020016000905b82821015610c9c5783829060005260206000209060020201604051806040016040529081600082018054600181600116156101000203166002900480601f016020809104026020016040519081016040528092919081815260200182805460018160011615610100020316600290048015610c2e5780601f10610c0357610100808354040283529160200191610c2e565b820191906000526020600020905b815481529060010190602001808311610c1157829003601f168201915b505050505081526020016001820160009054906101000a900473ffffffffffffffffffffffffffffffffffffffff1673ffffffffffffffffffffffffffffffffffffffff1673ffffffffffffffffffffffffffffffffffffffff168152505081526020019060010190610b72565b50505050905090565b60008054600181600116156101000203166002900480601f016020809104026020016040519081016040528092919081815260200182805460018160011615610100020316600290048015610d3b5780601f10610d1057610100808354040283529160200191610d3b565b820191906000526020600020905b815481529060010190602001808311610d1e57829003601f168201915b505050505081565b600160009054906101000a900473ffffffffffffffffffffffffffffffffffffffff1673ffffffffffffffffffffffffffffffffffffffff16638da5cb5b6040518163ffffffff1660e01b815260040160206040518083038186803b158015610dab57600080fd5b505afa158015610dbf573d6000803e3d6000fd5b505050506040513d601f19601f82011682018060405250610de39190810190610e90565b73ffffffffffffffffffffffffffffffffffffffff163373ffffffffffffffffffffffffffffffffffffffff16148015610e2a5750600760019054906101000a900460ff16155b8015610e435750600760009054906101000a900460ff16155b15610e64576001600760016101000a81548160ff0219169083151502179055505b565b600081519050610e7581611382565b92915050565b600081359050610e8a81611399565b92915050565b600060208284031215610ea257600080fd5b6000610eb084828501610e66565b91505092915050565b600060208284031215610ecb57600080fd5b6000610ed984828501610e7b565b91505092915050565b6000610eee8383611061565b905092915050565b610eff816112a0565b82525050565b610f0e816112a0565b82525050565b6000610f1f8261123f565b610f29818561126d565b935083602082028501610f3b8561122f565b8060005b85811015610f775784840389528151610f588582610ee2565b9450610f6383611260565b925060208a01995050600181019050610f3f565b50829750879550505050505092915050565b610f92816112b2565b82525050565b610fa1816112fb565b82525050565b610fb08161131f565b82525050565b6000610fc182611255565b610fcb818561128f565b9350610fdb818560208601611331565b610fe481611364565b840191505092915050565b6000610ffa8261124a565b611004818561127e565b9350611014818560208601611331565b61101d81611364565b840191505092915050565b60006110338261124a565b61103d818561128f565b935061104d818560208601611331565b61105681611364565b840191505092915050565b6000604083016000830151848203600086015261107e8282610fef565b91505060208301516110936020860182610ef6565b508091505092915050565b6110a7816112f1565b82525050565b600060208201905081810360008301526110c78184610f14565b905092915050565b60006020820190506110e46000830184610f89565b92915050565b60006020820190506110ff6000830184610f98565b92915050565b600060208201905061111a6000830184610fa7565b92915050565b6000602082019050818103600083015261113a8184611028565b905092915050565b600061012082019050818103600083015261115d818c610fb6565b905061116c602083018b610f05565b611179604083018a610f05565b818103606083015261118b8189610f14565b9050818103608083015261119f8188610f14565b90506111ae60a0830187610fa7565b6111bb60c083018661109e565b6111c860e0830185610f89565b6111d6610100830184610f89565b9a9950505050505050505050565b600060408201905081810360008301526111fe8185611028565b905061120d6020830184610f05565b9392505050565b6000602082019050611229600083018461109e565b92915050565b6000819050602082019050919050565b600081519050919050565b600081519050919050565b600081519050919050565b6000602082019050919050565b600082825260208201905092915050565b600082825260208201905092915050565b600082825260208201905092915050565b60006112ab826112d1565b9050919050565b60008115159050919050565b60008190506112cc82611375565b919050565b600073ffffffffffffffffffffffffffffffffffffffff82169050919050565b6000819050919050565b60006113068261130d565b9050919050565b6000611318826112d1565b9050919050565b600061132a826112be565b9050919050565b60005b8381101561134f578082015181840152602081019050611334565b8381111561135e576000848401525b50505050565b6000601f19601f8301169050919050565b6005811061137f57fe5b50565b61138b816112a0565b811461139657600080fd5b50565b6113a2816112f1565b81146113ad57600080fd5b5056fea365627a7a72315820191d0409aadedb172303539dacf8722c4a166caf10586ed934038cce8804f8a16c6578706572696d656e74616cf564736f6c63430005100040",
  "source": "pragma solidity >=0.4.22 <0.9.0;\r\n\r\npragma experimental ABIEncoderV2;\r\n\r\ncontract Actor {\r\n    string public id;\r\n    string public name;\r\n    string public actorType;\r\n    string public latitude;\r\n    string public longitude;\r\n    address public owner;\r\n\r\n    constructor(\r\n        string memory _id,\r\n        string memory _name,\r\n        string memory _actorType,\r\n        string memory _latitude,\r\n        string memory _longitude\r\n    ) public {\r\n        id = _id;\r\n        name = _name;\r\n        actorType = _actorType;\r\n        latitude = _latitude;\r\n        longitude = _longitude;\r\n        owner = msg.sender;\r\n    }\r\n\r\n    event TransactionCreated(address _address);\r\n\r\n    function createTransaction(\r\n        Transaction.Product[] memory _productsInput,\r\n        Transaction.Product[] memory _productsOutput,\r\n        Actor _buyer,\r\n        string memory _idTransaction,\r\n        Transaction.TransportType _transport\r\n    ) public {\r\n        require(msg.sender == owner, \"Only the actor can create a transaction\");\r\n\r\n        Transaction newTransaction =\r\n            new Transaction(\r\n                _idTransaction,\r\n                _buyer,\r\n                this,\r\n                _transport,\r\n                _productsInput,\r\n                _productsOutput\r\n            );\r\n        emit TransactionCreated(address(newTransaction));\r\n    }\r\n\r\n    function getActorInformations()\r\n        external\r\n        view\r\n        returns (\r\n            string memory _id,\r\n            string memory _name,\r\n            string memory _actorType,\r\n            string memory _latitude,\r\n            string memory _longitude\r\n        )\r\n    {\r\n        _id = id;\r\n        _name = name;\r\n        _actorType = actorType;\r\n        _latitude = latitude;\r\n        _longitude = longitude;\r\n    }\r\n}\r\n\r\ncontract Transaction {\r\n    enum TransportType {Plane, Train, Boat, Truck, Charette}\r\n\r\n    struct Product {\r\n        string productId;\r\n        address addressTransaction;\r\n    }\r\n\r\n    string public idTransaction;\r\n    Actor public buyer;\r\n    Actor public seller;\r\n    uint256 public date;\r\n    TransportType public transport;\r\n    Product[] public productsInput;\r\n    Product[] public productsOutput;\r\n    bool public isFinished;\r\n    bool public isAccepted;\r\n\r\n    constructor(\r\n        string memory _idTransaction,\r\n        Actor _buyer,\r\n        Actor _seller,\r\n        TransportType _transport,\r\n        Product[] memory _productsInput,\r\n        Product[] memory _productsOutput\r\n    ) public {\r\n        idTransaction = _idTransaction;\r\n        seller = _seller;\r\n        buyer = _buyer;\r\n        date = block.timestamp;\r\n        transport = _transport;\r\n        for (uint256 index = 0; index < _productsInput.length; index++) {\r\n            productsInput.push(_productsInput[index]);\r\n        }\r\n        for (uint256 index = 0; index < _productsOutput.length; index++) {\r\n            productsOutput.push(_productsOutput[index]);\r\n        }\r\n        isFinished = false;\r\n        isAccepted = false;\r\n    }\r\n\r\n    function acceptTransaction() external {\r\n        if (msg.sender == buyer.owner() && !isAccepted && !isFinished) {\r\n            isAccepted = true;\r\n        }\r\n    }\r\n\r\n    function finishTransaction() external {\r\n        if (msg.sender == buyer.owner() && isAccepted && !isFinished) {\r\n            isFinished = true;\r\n        }\r\n    }\r\n\r\n    function getProductsInput() external view returns (Product[] memory) {\r\n        return productsInput;\r\n    }\r\n\r\n    function getProductsOutput() external view returns (Product[] memory) {\r\n        return productsOutput;\r\n    }\r\n\r\n    function getTransactionInformations()\r\n        external\r\n        view\r\n        returns (\r\n            string memory _id,\r\n            address _buyerAddress,\r\n            address _sellerAddress,\r\n            Product[] memory _productsInput,\r\n            Product[] memory _productsOutput,\r\n            TransportType _transport,\r\n            uint256 _date,\r\n            bool _isFinished,\r\n            bool _isAccepted\r\n        )\r\n    {\r\n        _id = idTransaction;\r\n        _buyerAddress = address(buyer);\r\n        _sellerAddress = address(seller);\r\n        _productsInput = productsInput;\r\n        _productsOutput = productsOutput;\r\n        _transport = transport;\r\n        _date = date;\r\n        _isFinished = isFinished;\r\n        _isAccepted = isAccepted;\r\n    }\r\n}\r\n",
  "sourcePath": "C:/Users/Killian OECHSLIN/Desktop/INSA/4IF/S2/SMART/Source/lowympact-blockchain/contracts/Lowympact.sol",
  "compiler": {
    "name": "solc",
    "version": "0.5.16+commit.9c3226ce.Emscripten.clang"
  },
  "schemaVersion": "3.3.3",
  "updatedAt": "2021-05-03T20:59:10.112Z",
  "devdoc": {
    "methods": {}
  },
  "userdoc": {
    "methods": {}
  }
}