{
  "contractName": "Transaction",
  "abi": [
    {
      "inputs": [
        {
          "internalType": "string",
          "name": "_idTransaction",
          "type": "string"
        },
        {
          "internalType": "contract Actor",
          "name": "_buyer",
          "type": "address"
        },
        {
          "internalType": "contract Actor",
          "name": "_seller",
          "type": "address"
        },
        {
          "internalType": "enum Transaction.TransportType",
          "name": "_transport",
          "type": "uint8"
        },
        {
          "components": [
            {
              "internalType": "string",
              "name": "productId",
              "type": "string"
            },
            {
              "internalType": "address",
              "name": "addressTransaction",
              "type": "address"
            }
          ],
          "internalType": "struct Transaction.Product[]",
          "name": "_productsInput",
          "type": "tuple[]"
        },
        {
          "components": [
            {
              "internalType": "string",
              "name": "productId",
              "type": "string"
            },
            {
              "internalType": "address",
              "name": "addressTransaction",
              "type": "address"
            }
          ],
          "internalType": "struct Transaction.Product[]",
          "name": "_productsOutput",
          "type": "tuple[]"
        }
      ],
      "payable": false,
      "stateMutability": "nonpayable",
      "type": "constructor"
    },
    {
      "constant": true,
      "inputs": [],
      "name": "buyer",
      "outputs": [
        {
          "internalType": "contract Actor",
          "name": "",
          "type": "address"
        }
      ],
      "payable": false,
      "stateMutability": "view",
      "type": "function"
    },
    {
      "constant": true,
      "inputs": [],
      "name": "date",
      "outputs": [
        {
          "internalType": "uint256",
          "name": "",
          "type": "uint256"
        }
      ],
      "payable": false,
      "stateMutability": "view",
      "type": "function"
    },
    {
      "constant": true,
      "inputs": [],
      "name": "idTransaction",
      "outputs": [
        {
          "internalType": "string",
          "name": "",
          "type": "string"
        }
      ],
      "payable": false,
      "stateMutability": "view",
      "type": "function"
    },
    {
      "constant": true,
      "inputs": [],
      "name": "isAccepted",
      "outputs": [
        {
          "internalType": "bool",
          "name": "",
          "type": "bool"
        }
      ],
      "payable": false,
      "stateMutability": "view",
      "type": "function"
    },
    {
      "constant": true,
      "inputs": [],
      "name": "isFinished",
      "outputs": [
        {
          "internalType": "bool",
          "name": "",
          "type": "bool"
        }
      ],
      "payable": false,
      "stateMutability": "view",
      "type": "function"
    },
    {
      "constant": true,
      "inputs": [
        {
          "internalType": "uint256",
          "name": "",
          "type": "uint256"
        }
      ],
      "name": "productsInput",
      "outputs": [
        {
          "internalType": "string",
          "name": "productId",
          "type": "string"
        },
        {
          "internalType": "address",
          "name": "addressTransaction",
          "type": "address"
        }
      ],
      "payable": false,
      "stateMutability": "view",
      "type": "function"
    },
    {
      "constant": true,
      "inputs": [
        {
          "internalType": "uint256",
          "name": "",
          "type": "uint256"
        }
      ],
      "name": "productsOutput",
      "outputs": [
        {
          "internalType": "string",
          "name": "productId",
          "type": "string"
        },
        {
          "internalType": "address",
          "name": "addressTransaction",
          "type": "address"
        }
      ],
      "payable": false,
      "stateMutability": "view",
      "type": "function"
    },
    {
      "constant": true,
      "inputs": [],
      "name": "seller",
      "outputs": [
        {
          "internalType": "contract Actor",
          "name": "",
          "type": "address"
        }
      ],
      "payable": false,
      "stateMutability": "view",
      "type": "function"
    },
    {
      "constant": true,
      "inputs": [],
      "name": "transport",
      "outputs": [
        {
          "internalType": "enum Transaction.TransportType",
          "name": "",
          "type": "uint8"
        }
      ],
      "payable": false,
      "stateMutability": "view",
      "type": "function"
    },
    {
      "constant": false,
      "inputs": [],
      "name": "acceptTransaction",
      "outputs": [],
      "payable": false,
      "stateMutability": "nonpayable",
      "type": "function"
    },
    {
      "constant": false,
      "inputs": [],
      "name": "finishTransaction",
      "outputs": [],
      "payable": false,
      "stateMutability": "nonpayable",
      "type": "function"
    }
  ],
  "bytecode": "0x60806040523480156200001157600080fd5b5060405162001254380380620012548339818101604052620000379190810190620005ef565b85600090805190602001906200004f929190620002d3565b5083600260006101000a81548173ffffffffffffffffffffffffffffffffffffffff021916908373ffffffffffffffffffffffffffffffffffffffff16021790555084600160006101000a81548173ffffffffffffffffffffffffffffffffffffffff021916908373ffffffffffffffffffffffffffffffffffffffff1602179055504260038190555082600460006101000a81548160ff02191690836004811115620000f857fe5b021790555060008090505b8251811015620001c65760058282815181106200011c57fe5b60200260200101519080600181540180825580915050906001820390600052602060002090600202016000909192909190915060008201518160000190805190602001906200016d9291906200035a565b5060208201518160010160006101000a81548173ffffffffffffffffffffffffffffffffffffffff021916908373ffffffffffffffffffffffffffffffffffffffff160217905550505050808060010191505062000103565b5060008090505b815181101562000290576006828281518110620001e657fe5b6020026020010151908060018154018082558091505090600182039060005260206000209060020201600090919290919091506000820151816000019080519060200190620002379291906200035a565b5060208201518160010160006101000a81548173ffffffffffffffffffffffffffffffffffffffff021916908373ffffffffffffffffffffffffffffffffffffffff1602179055505050508080600101915050620001cd565b506000600760006101000a81548160ff0219169083151502179055506000600760016101000a81548160ff02191690831515021790555050505050505062000844565b828054600181600116156101000203166002900490600052602060002090601f016020900481019282601f106200031657805160ff191683800117855562000347565b8280016001018555821562000347579182015b828111156200034657825182559160200191906001019062000329565b5b509050620003569190620003e1565b5090565b828054600181600116156101000203166002900490600052602060002090601f016020900481019282601f106200039d57805160ff1916838001178555620003ce565b82800160010185558215620003ce579182015b82811115620003cd578251825591602001919060010190620003b0565b5b509050620003dd9190620003e1565b5090565b6200040691905b8082111562000402576000816000905550600101620003e8565b5090565b90565b6000815190506200041a81620007ff565b92915050565b600082601f8301126200043257600080fd5b8151620004496200044382620006fe565b620006d0565b9150818183526020840193506020810190508360005b8381101562000493578151860162000478888262000583565b8452602084019350602083019250506001810190506200045f565b5050505092915050565b600081519050620004ae8162000819565b92915050565b600081519050620004c58162000833565b92915050565b600082601f830112620004dd57600080fd5b8151620004f4620004ee8262000727565b620006d0565b915080825260208301602083018583830111156200051157600080fd5b6200051e838284620007c9565b50505092915050565b600082601f8301126200053957600080fd5b8151620005506200054a8262000754565b620006d0565b915080825260208301602083018583830111156200056d57600080fd5b6200057a838284620007c9565b50505092915050565b6000604082840312156200059657600080fd5b620005a26040620006d0565b9050600082015167ffffffffffffffff811115620005bf57600080fd5b620005cd84828501620004cb565b6000830152506020620005e38482850162000409565b60208301525092915050565b60008060008060008060c087890312156200060957600080fd5b600087015167ffffffffffffffff8111156200062457600080fd5b6200063289828a0162000527565b96505060206200064589828a016200049d565b95505060406200065889828a016200049d565b94505060606200066b89828a01620004b4565b935050608087015167ffffffffffffffff8111156200068957600080fd5b6200069789828a0162000420565b92505060a087015167ffffffffffffffff811115620006b557600080fd5b620006c389828a0162000420565b9150509295509295509295565b6000604051905081810181811067ffffffffffffffff82111715620006f457600080fd5b8060405250919050565b600067ffffffffffffffff8211156200071657600080fd5b602082029050602081019050919050565b600067ffffffffffffffff8211156200073f57600080fd5b601f19601f8301169050602081019050919050565b600067ffffffffffffffff8211156200076c57600080fd5b601f19601f8301169050602081019050919050565b60006200078e82620007a9565b9050919050565b6000620007a28262000781565b9050919050565b600073ffffffffffffffffffffffffffffffffffffffff82169050919050565b60005b83811015620007e9578082015181840152602081019050620007cc565b83811115620007f9576000848401525b50505050565b6200080a8162000781565b81146200081657600080fd5b50565b620008248162000795565b81146200083057600080fd5b50565b600581106200084157600080fd5b50565b610a0080620008546000396000f3fe608060405234801561001057600080fd5b50600436106100a95760003560e01c806355c720aa1161007157806355c720aa1461013057806365107616146101615780637150d8ae146101925780637b352962146101b0578063b90be966146101ce578063f6b6e4f3146101ec576100a9565b806302afc23f146100ae57806308551a53146100b85780632cf87b13146100d6578063323046b1146100f45780635051a5ec14610112575b600080fd5b6100b66101f6565b005b6100c06102e7565b6040516100cd91906107ee565b60405180910390f35b6100de61030d565b6040516100eb9190610809565b60405180910390f35b6100fc610320565b6040516101099190610876565b60405180910390f35b61011a610326565b60405161012791906107d3565b60405180910390f35b61014a60048036036101459190810190610726565b610339565b604051610158929190610846565b60405180910390f35b61017b60048036036101769190810190610726565b610422565b604051610189929190610846565b60405180910390f35b61019a61050b565b6040516101a791906107ee565b60405180910390f35b6101b8610531565b6040516101c591906107d3565b60405180910390f35b6101d6610544565b6040516101e39190610824565b60405180910390f35b6101f46105e2565b005b600160009054906101000a900473ffffffffffffffffffffffffffffffffffffffff1673ffffffffffffffffffffffffffffffffffffffff16638da5cb5b6040518163ffffffff1660e01b815260040160206040518083038186803b15801561025e57600080fd5b505afa158015610272573d6000803e3d6000fd5b505050506040513d601f19601f8201168201806040525061029691908101906106fd565b73ffffffffffffffffffffffffffffffffffffffff163373ffffffffffffffffffffffffffffffffffffffff1614156102e5576001600760006101000a81548160ff0219169083151502179055505b565b600260009054906101000a900473ffffffffffffffffffffffffffffffffffffffff1681565b600460009054906101000a900460ff1681565b60035481565b600760019054906101000a900460ff1681565b6006818154811061034657fe5b9060005260206000209060020201600091509050806000018054600181600116156101000203166002900480601f0160208091040260200160405190810160405280929190818152602001828054600181600116156101000203166002900480156103f25780601f106103c7576101008083540402835291602001916103f2565b820191906000526020600020905b8154815290600101906020018083116103d557829003601f168201915b5050505050908060010160009054906101000a900473ffffffffffffffffffffffffffffffffffffffff16905082565b6005818154811061042f57fe5b9060005260206000209060020201600091509050806000018054600181600116156101000203166002900480601f0160208091040260200160405190810160405280929190818152602001828054600181600116156101000203166002900480156104db5780601f106104b0576101008083540402835291602001916104db565b820191906000526020600020905b8154815290600101906020018083116104be57829003601f168201915b5050505050908060010160009054906101000a900473ffffffffffffffffffffffffffffffffffffffff16905082565b600160009054906101000a900473ffffffffffffffffffffffffffffffffffffffff1681565b600760009054906101000a900460ff1681565b60008054600181600116156101000203166002900480601f0160208091040260200160405190810160405280929190818152602001828054600181600116156101000203166002900480156105da5780601f106105af576101008083540402835291602001916105da565b820191906000526020600020905b8154815290600101906020018083116105bd57829003601f168201915b505050505081565b600160009054906101000a900473ffffffffffffffffffffffffffffffffffffffff1673ffffffffffffffffffffffffffffffffffffffff16638da5cb5b6040518163ffffffff1660e01b815260040160206040518083038186803b15801561064a57600080fd5b505afa15801561065e573d6000803e3d6000fd5b505050506040513d601f19601f8201168201806040525061068291908101906106fd565b73ffffffffffffffffffffffffffffffffffffffff163373ffffffffffffffffffffffffffffffffffffffff1614156106d1576001600760016101000a81548160ff0219169083151502179055505b565b6000815190506106e28161098f565b92915050565b6000813590506106f7816109a6565b92915050565b60006020828403121561070f57600080fd5b600061071d848285016106d3565b91505092915050565b60006020828403121561073857600080fd5b6000610746848285016106e8565b91505092915050565b610758816108ad565b82525050565b610767816108bf565b82525050565b61077681610908565b82525050565b6107858161092c565b82525050565b600061079682610891565b6107a0818561089c565b93506107b081856020860161093e565b6107b981610971565b840191505092915050565b6107cd816108fe565b82525050565b60006020820190506107e8600083018461075e565b92915050565b6000602082019050610803600083018461076d565b92915050565b600060208201905061081e600083018461077c565b92915050565b6000602082019050818103600083015261083e818461078b565b905092915050565b60006040820190508181036000830152610860818561078b565b905061086f602083018461074f565b9392505050565b600060208201905061088b60008301846107c4565b92915050565b600081519050919050565b600082825260208201905092915050565b60006108b8826108de565b9050919050565b60008115159050919050565b60008190506108d982610982565b919050565b600073ffffffffffffffffffffffffffffffffffffffff82169050919050565b6000819050919050565b60006109138261091a565b9050919050565b6000610925826108de565b9050919050565b6000610937826108cb565b9050919050565b60005b8381101561095c578082015181840152602081019050610941565b8381111561096b576000848401525b50505050565b6000601f19601f8301169050919050565b6005811061098c57fe5b50565b610998816108ad565b81146109a357600080fd5b50565b6109af816108fe565b81146109ba57600080fd5b5056fea365627a7a7231582024e058c01601ab0539050f4778ab358f2f794770d033112de9c2545b87b73eb56c6578706572696d656e74616cf564736f6c63430005100040",
  "source": "pragma solidity >=0.4.22 <0.9.0;\r\n\r\npragma experimental ABIEncoderV2;\r\n\r\ncontract Actor {\r\n    string public id;\r\n    string public name;\r\n    string public actorType;\r\n    string public latitude;\r\n    string public longitude;\r\n    address public owner;\r\n\r\n    constructor(\r\n        string memory _id,\r\n        string memory _name,\r\n        string memory _actorType,\r\n        string memory _latitude,\r\n        string memory _longitude\r\n    ) public {\r\n        id = _id;\r\n        name = _name;\r\n        actorType = _actorType;\r\n        latitude = _latitude;\r\n        longitude = _longitude;\r\n        owner = msg.sender;\r\n    }\r\n\r\n    event TransactionCreated(address _address);\r\n\r\n    function createTransaction(\r\n        Transaction.Product[] memory _productsInput,\r\n        Transaction.Product[] memory _productsOutput,\r\n        Actor _buyer,\r\n        string memory _idTransaction,\r\n        Transaction.TransportType _transport\r\n    ) public {\r\n        require(msg.sender == owner, \"Only the actor can create a transaction\");\r\n\r\n        Transaction newTransaction = new Transaction(\r\n                _idTransaction,\r\n                _buyer,\r\n                this,\r\n                _transport,\r\n                _productsInput,\r\n                _productsOutput\r\n            );\r\n        emit TransactionCreated(address(newTransaction));\r\n    }\r\n}\r\n\r\ncontract Transaction {\r\n    enum TransportType {Avion, Train, Bateau, Camion, Charette}\r\n\r\n    struct Product {\r\n        string productId;\r\n        address addressTransaction;\r\n    }\r\n\r\n    struct Products {\r\n        mapping(uint256 => Product) products;\r\n        uint256 size;\r\n    }\r\n\r\n    string public idTransaction;\r\n    Actor public buyer;\r\n    Actor public seller;\r\n    uint256 public date;\r\n    TransportType public transport;\r\n    Product[] public productsInput;\r\n    Product[] public productsOutput;\r\n    bool public isFinished;\r\n    bool public isAccepted;\r\n\r\n    constructor(\r\n        string memory _idTransaction,\r\n        Actor _buyer,\r\n        Actor _seller,\r\n        TransportType _transport,\r\n        Product[] memory _productsInput,\r\n        Product[] memory _productsOutput\r\n    ) public {\r\n        idTransaction = _idTransaction;\r\n        seller = _seller;\r\n        buyer = _buyer;\r\n        date = block.timestamp;\r\n        transport = _transport;\r\n        for (uint256 index = 0; index < _productsInput.length; index++) {\r\n            productsInput.push(_productsOutput[index]);\r\n        }\r\n        for (uint256 index = 0; index < _productsOutput.length; index++) {\r\n            productsOutput.push(_productsOutput[index]);\r\n        }\r\n        isFinished = false;\r\n        isAccepted = false;\r\n    }\r\n\r\n    function acceptTransaction() external {\r\n        if (msg.sender == buyer.owner()) {\r\n            isAccepted = true;\r\n        }\r\n    }\r\n\r\n    function finishTransaction() external {\r\n        if (msg.sender == buyer.owner()) {\r\n            isFinished = true;\r\n        }\r\n    }\r\n}\r\n",
  "sourcePath": "C:/Users/Thibaut/Documents/4A - INSA Lyon/1 - Cours/Semestre 2/7 - PLD SMART/lowympact-blockchain/contracts/Lowympact.sol",
  "compiler": {
    "name": "solc",
    "version": "0.5.16+commit.9c3226ce.Emscripten.clang"
  },
  "schemaVersion": "3.3.3",
  "updatedAt": "2021-04-28T15:39:40.959Z",
  "devdoc": {
    "methods": {}
  },
  "userdoc": {
    "methods": {}
  }
}